:020000040800F2
:1000000000800120851D0008C91D0008C91D0008C9
:10001000C91D0008C91D0008C91D00080000000016
:10002000000000000000000000000000C91D0008E2
:10003000C91D000800000000C91D0008C91D0008F6
:10004000C91D0008C91D0008C91D0008C91D0008F8
:10005000C91D0008C91D0008C91D0008C91D0008E8
:10006000C91D0008C91D0008C91D0008C91D0008D8
:10007000C91D0008C91D0008C91D0008C91D0008C8
:10008000C91D0008C91D0008C91D000800000000A6
:10009000000000000000000000000000511D0008EA
:1000A000C91D0008C91D0008C91D0008C91D000898
:1000B000C91D0008C91D0008C91D0008C91D000888
:1000C000C91D0008C91D0008C91D0008C91D000878
:1000D000C91D0008C91D0008C91D00080000000056
:1000E000C91D0008C91D0008C91D00080000000046
:1000F000000000000000000000000000C91D000812
:1001000000000000C91D0008C91D0008C91D000825
:1001100000000000000000000000000000000000DF
:10012000C91D0008C91D0008C91D0008C91D000817
:10013000C91D0008000000000000000000000000D1
:10014000000000000000000000000000C91D0008C1
:10015000C91D0008C91D0008C91D0008C91D0008E7
:10016000C91D0008C91D00080000000000000000B3
:10017000000000000000000000000000000000007F
:1001800000000000C91D0008000000000000000081
:04019000C91D00087D
:1001940080F0004002E000BF81F0004142001FBF38
:1001A4005FEA410392EA030F7FEA226C7FEA236C41
:1001B4006AD04FEA1262D2EB1363C1BFD218414036
:1001C40048404140B8BF5B42192B88BF704710F0CC
:1001D400004F40F4000020F07F4018BF404211F06F
:1001E400004F41F4000121F07F4118BF494292EAD7
:1001F400030F3FD0A2F1010241FA03FC10EB0C0003
:10020400C3F1200301FA03F100F0004302D549428F
:1002140060EB4000B0F5000F13D3B0F1807F06D33C
:1002240040084FEA310102F10102FE2A51D2B1F134
:10023400004F40EBC25008BF20F0010040EA030029
:100244007047490040EB0000013A28BFB0F5000FA9
:10025400EDD2B0FA80FCACF1080CB2EB0C0200FA5F
:100264000CF0AABF00EBC25052421843BCBFD040AE
:100274001843704792F0000F81F4000106BF80F428
:1002840000000132013BB5E74FEA41037FEA226CEB
:1002940018BF7FEA236C21D092EA030F04D092F0B6
:1002A400000F08BF0846704790EA010F1CBF0020EA
:1002B400704712F07F4F04D1400028BF40F0004047
:1002C400704712F100723CBF00F50000704700F067
:1002D400004343F0FE4040F4000070477FEA22628E
:1002E40016BF08467FEA23630146420206BF5FEA5F
:1002F400412390EA010F40F4800070474FF000035F
:1003040004E000BF10F0004348BF40425FEA000C25
:1003140008BF704743F0964301464FF000001CE0CD
:1003240050EA010208BF70474FF000030AE000BF23
:1003340050EA010208BF704711F0004302D5404261
:1003440061EB41015FEA010C02BF844601460020D3
:1003540043F0B64308BFA3F18053A3F50003BCFAEE
:100364008CF2083AA3EBC25310DB01FA02FC63449B
:1003740000FA02FCC2F12002BCF1004F20FA02F2A2
:1003840043EB020008BF20F00100704702F1200295
:1003940001FA02FCC2F1200250EA4C0021FA02F2F6
:1003A40043EB020008BF20EADC7070474FF0FF0CFB
:1003B4001CEAD0521EBF1CEAD15392EA0C0F93EAF6
:1003C4000C0F6FD01A4480EA010C400218BF5FEA98
:1003D40041211ED04FF0006343EA501043EA51110B
:1003E400A0FB01310CF00040B1F5000F3EBF490005
:1003F40041EAD3715B0040EA010062F17F02FD2A09
:100404001DD8B3F1004F40EBC25008BF20F00100EB
:10041400704790F0000F0CF0004C08BF49024CEA02
:10042400502040EA51207F3AC2BFD2F1FF0340EA94
:10043400C250704740F400004FF00003013A5DDC05
:1004440012F1190FDCBF00F000407047C2F1000246
:10045400410021FA02F1C2F1200200FA02FC5FEA33
:10046400310040F1000053EA4C0308BF20EADC707D
:10047400704792F0000F00F0004C02BF400010F4EF
:10048400000F013AF9D040EA0C0093F0000F01F09C
:10049400004C02BF490011F4000F013BF9D041EABE
:1004A4000C018FE70CEAD15392EA0C0F18BF93EAC0
:1004B4000C0F0AD030F0004C18BF31F0004CD8D1EA
:1004C40080EA010000F00040704790F0000F17BF71
:1004D40090F0004F084691F0000F91F0004F14D0B7
:1004E40092EA0C0F01D142020FD193EA0C0F03D10F
:1004F4004B0218BF084608D180EA010000F0004012
:1005040040F0FE4040F40000704740F0FE4040F4EC
:10051400400070474FF0FF0C1CEAD0521EBF1CEA8B
:10052400D15392EA0C0F93EA0C0F69D0A2EB0302A9
:1005340080EA010C49024FEA402037D04FF0805343
:1005440043EA111143EA10130CF000408B4238BF08
:100554005B0042F17D024FF4000C8B4224BF5B1A16
:1005640040EA0C00B3EB510F24BFA3EB510340EA64
:100574005C00B3EB910F24BFA3EB910340EA9C0012
:10058400B3EBD10F24BFA3EBD10340EADC001B0182
:1005940018BF5FEA1C1CE0D1FD2A3FF650AF8B4226
:1005A40040EBC25008BF20F0010070470CF0004C33
:1005B4004CEA50207F32C2BFD2F1FF0340EAC2505E
:1005C400704740F400004FF00003013A37E792F01F
:1005D400000F00F0004C02BF400010F4000F013A7D
:1005E400F9D040EA0C0093F0000F01F0004C02BF78
:1005F400490011F4000F013BF9D041EA0C0195E7E1
:100604000CEAD15392EA0C0F08D142027FF47DAF79
:1006140093EA0C0F7FF470AF084676E793EA0C0F69
:1006240004D14B023FF44CAF08466EE730F0004C67
:1006340018BF31F0004CCAD130F000427FF45CAFF7
:1006440031F000437FF43CAF5FE700BF4FF0FF3C65
:1006540006E000BF4FF0010C02E000BF4FF0010CB8
:100664004DF804CD4FEA40024FEA41037FEA226C81
:1006740018BF7FEA236C11D001B052EA530C18BFA3
:1006840090EA010F58BFB2EB030088BFC81738BF08
:100694006FEAE17018BF40F0010070477FEA226CF6
:1006A40002D15FEA402C05D17FEA236CE4D15FEAF2
:1006B400412CE1D05DF8040B704700BF8446084626
:1006C4006146FFE70FB5FFF7C9FF002848BF10F1E7
:1006D400000F0FBD4DF808EDFFF7F4FF0CBF01202C
:1006E40000205DF808FB00BF4DF808EDFFF7EAFFB6
:1006F40034BF012000205DF808FB00BF4DF808ED71
:10070400FFF7E0FF94BF012000205DF808FB00BF65
:100714004DF808EDFFF7D2FF94BF012000205DF8EB
:1007240008FB00BF4DF808EDFFF7C8FF34BF0120F8
:1007340000205DF808FB00BF42000ED2B2F1FE4F6C
:100744000BD34FF09E03B3EB126209D44FEA00239C
:1007540043F0004323FA02F070474FF00000704763
:1007640012F1610F01D1420202D14FF0FF30704704
:100774004FF00000704700BF0348044B834202D08F
:10078400034B03B118477047040000200400002005
:10079400000000000548064B1B1AD90F01EBA3010A
:1007A400491002D0034B03B11847704704000020DE
:1007B400040000200000000010B5064C237843B963
:1007C400FFF7DAFF044B13B10448AFF300800123B1
:1007D400237010BD0400002000000000141E000857
:1007E40008B5054B1BB105490548AFF30080BDE8CA
:1007F4000840FFF7CFBF00BF000000000800002042
:10080400141E000880B582B000AF0346FB710B468E
:10081400BB7113467B71B979F8790023032200F088
:1008240043F9682000F0F4FD3E4B5B683D4A23F435
:10083400403353603B4B3B4A5B6853603A4B5B68C5
:10084400394A23F040735360374B374A5B6853602F
:10085400354B00229A60344B9B68334A43F00103C2
:100864009360314B9B68304A23F0020393602E4B14
:100874009B682D4A43F4806393607B79092B19D8D4
:10088400294B19697A7913465B001344072202FA4B
:1008940003F3DB43244A0B401361234B19697A7930
:1008A40013465B001344042202FA03F31E4A0B436B
:1008B40013611CE01C4BD9687B79A3F10A0213462F
:1008C4005B001344072202FA03F3DB43164A0B408E
:1008D400D360154BD9687B79A3F10A0213465B00F8
:1008E4001344042202FA03F30F4A0B43D3600E4B62
:1008F400DB6A0D4A23F47003D3620B4B0A4ADB6AAA
:10090400D362094B5B6B084A23F01F035363064B06
:100914005A6B7B79044913434B6300BF0837BD46C8
:1009240080BD00BF002301400020014080B400AF1F
:10093400094B9B68084A43F08043936000BF064B11
:100944001B6803F00203002BF9D0034BDB6C9BB252
:100954001846BD4680BC70470020014080B483B077
:1009640000AF0346FB7197F90730002B0BDBFB79D3
:1009740003F01F02064997F907305B09012000FACA
:1009840002F241F8232000BF0C37BD4680BC7047FB
:1009940000E100E080B485B000AF0346FB710B4674
:1009A400BB7113467B71FB79413BFB737B79002B55
:1009B4000AD12F4BDB68BA79012101FA02F2114600
:1009C4002B4A0B43D36024E07B79012B0AD1284BBB
:1009D4009B68BA79012101FA02F21146244A0B43B9
:1009E400936016E07B79022B13D1214BDB68BA7933
:1009F400012101FA02F211461D4A0B43D3601C4B3C
:100A04009B68BA79012101FA02F21146184A0B4394
:100A14009360BB799B08BB73BB7903F00303DBB220
:100A24009B007B73134ABB7B023352F823207B7BEE
:100A34000F2101FA03F3DB4318460E49BB7B024046
:100A4400023341F823200B4ABB7B023352F82320A4
:100A5400F97B7B7B01FA03F318460649BB7B02430F
:100A6400023341F8232000BF1437BD4680BC7047D1
:100A7400003C01400038014080B582B000AF03461D
:100A8400FB71084B1B68FA79012101FA02F2114645
:100A9400044A0B4313601720FFF760FF00BF0837B9
:100AA400BD4680BD003C014090B482B000AF044616
:100AB400084611461A462346FB710346BB710B4692
:100AC4007B7113463B71FB79413B032B00F2F881A8
:100AD40001A252F823F000BFED0A0008F50B00084C
:100AE400FD0C0008350E00089C4B1B68BA795200B7
:100AF400032101FA02F2D2431146984A0B401360D3
:100B0400964B1B687979BA79520001FA02F21146C0
:100B1400924A0B4313607B79002B17D1904B1B68CF
:100B2400BA795200032101FA02F2D24311468C4AE7
:100B34000B4013608A4B1B683979BA79520001FA69
:100B440002F21146864A0B431360BBE17B79012B09
:100B540015D1844B1B68BA79012101FA02F2D24300
:100B64001146804A0B4013607E4B1B683979BA7971
:100B740001FA02F211467B4A0B431360A2E17B792E
:100B8400022B40F09F81BB79072B17D8764B1B684B
:100B9400BA7992000F2101FA02F2D2431146724A45
:100BA4000B401360704B1B68BA799200012101FA63
:100BB40002F211466C4A0B43136083E16B4B1B68D2
:100BC400BA79083A92000F2101FA02F2D24311468F
:100BD400664A0B401360654B1B68BA79083A920069
:100BE400012101FA02F21146604A0B43136069E1E4
:100BF4005F4B1B68BA795200032101FA02F2D24317
:100C040011465B4A0B401360594B1B687979BA79DA
:100C1400520001FA02F21146554A0B4313607B79E4
:100C2400002B17D1534B1B68BA795200032101FAE8
:100C340002F2D24311464F4A0B4013604D4B1B68DE
:100C44003979BA79520001FA02F21146494A0B4342
:100C5400136039E17B79012B15D1474B1B68BA79B5
:100C6400012101FA02F2D2431146434A0B401360B8
:100C7400414B1B683979BA7901FA02F211463E4AAE
:100C84000B43136020E17B79022B40F01D81BB797B
:100C9400072B17D8394B1B68BA7992000F2101FA38
:100CA40002F2D2431146354A0B401360334B1B68A2
:100CB400BA799200012101FA02F211462F4A0B433C
:100CC400136001E12E4B1B68BA79083A92000F2198
:100CD40001FA02F2D2431146294A0B401360284B11
:100CE4001B68BA79083A9200012101FA02F211460E
:100CF400234A0B431360E7E0224B1B68BA79520086
:100D0400032101FA02F2D24311461E4A0B4013603A
:100D14001C4B1B687979BA79520001FA02F2114628
:100D2400184A0B4313607B79002B2FD1164B1B6899
:100D3400BA795200032101FA02F2D2431146124A4F
:100D44000B401360104B1B683979BA79520001FAD1
:100D540002F211460C4A0B431360B7E00000024054
:100D64000C00024004000240200002402400024023
:100D7400000402400C040240040402402004024027
:100D840024040240000802400C0802407B79012B35
:100D940015D1514B1B68BA79012101FA02F2D243F1
:100DA40011464D4A0B4013604B4B1B683979BA7995
:100DB40001FA02F21146484A0B43136086E07B793C
:100DC400022B40F08380BB79072B17D8434B1B6859
:100DD400BA7992000F2101FA02F2D24311463F4A36
:100DE4000B4013603D4B1B68BA799200012101FA54
:100DF40002F21146394A0B43136067E0384B1B6813
:100E0400BA79083A92000F2101FA02F2D24311464C
:100E1400334A0B401360324B1B68BA79083A92008C
:100E2400012101FA02F211462D4A0B4313604DE0F1
:100E34002C4B1B68BA795200032101FA02F2D24307
:100E44001146284A0B401360264B1B687979BA79FE
:100E5400520001FA02F21146224A0B4313607B79D5
:100E6400002B17D1204B1B68BA795200032101FAD9
:100E740002F2D24311461C4A0B4013601A4B1B6802
:100E84003979BA79520001FA02F21146164A0B4333
:100E940013601CE0154B1B68BA79012101FA02F2B8
:100EA400D2431146114A0B401360104B1B68397929
:100EB400BA7901FA02F211460C4A0B43136006E0B8
:100EC40000BF04E000BF02E000BF00E000BF00BFBD
:100ED4000837BD4690BC7047040802402008024011
:100EE40024080240000C02400C0C0240040C024096
:100EF40080B485B000AF0346FB710B46BB7113464B
:100F04007B71FB79413B032B36D801A252F823F0C5
:100F1400250F00083B0F0008510F0008670F000859
:100F2400504B1A68BB795B0022FA03F3DBB203F07F
:100F34000303FB7321E04C4B1A68BB795B0022FA74
:100F440003F3DBB203F00303FB7316E0474B1A68A9
:100F5400BB795B0022FA03F3DBB203F00303FB73F8
:100F64000BE0434B1A68BB795B0022FA03F3DBB254
:100F740003F00303FB7300E000BFFB7B002B01D1F4
:100F8400012369E0FB79413B032B63D801A252F8AA
:100F940023F000BFA90F0008D50F000801100008B6
:100FA4002D100008334B1B68BA79012101FA02F2B3
:100FB400D24311462F4A0B4013602E4B1B6879799C
:100FC400BA7901FA02F211462A4A0B43136042E04D
:100FD400294B1B68BA79012101FA02F2D243114666
:100FE400254A0B401360244B1B687979BA7901FABE
:100FF40002F21146204A0B4313602CE01F4B1B687E
:10100400BA79012101FA02F2D24311461B4A0B407C
:1010140013601A4B1B687979BA7901FA02F2114606
:10102400164A0B43136016E0154B1B68BA7901216D
:1010340001FA02F2D2431146114A0B401360104BDD
:101044001B687979BA7901FA02F211460C4A0B430A
:10105400136000E000BF002318461437BD4680BC6F
:10106400704700BF00000240000402400008024034
:10107400000C024014000240140402401408024010
:10108400140C024080B485B000AF03460A46FB71DD
:101094001346BB71FB79413B032B33D801A252F8B1
:1010A40023F000BFB9100008CD100008E1100008BB
:1010B400F5100008174B1A68BB7922FA03F3DBB268
:1010C40003F00103FB731EE0134B1A68BB7922FA89
:1010D40003F3DBB203F00103FB7314E00F4B1A6854
:1010E400BB7922FA03F3DBB203F00103FB730AE0DA
:1010F4000B4B1A68BB7922FA03F3DBB203F001034A
:10110400FB7300E000BFFB7B18461437BD4680BC70
:10111400704700BF10000240100402401008024053
:10112400100C024080B582B000AF03460A46FB7142
:101134001346BB80022000F015F8BB88184600F067
:101144001BF900BF0837BD4680BD80B582B000AF33
:101154000346FB80FB88184600F00EF900BF0837F1
:10116400BD4680BD80B584B000AF0346FB717D4AA7
:10117400FB791370602000F04BF97B4BFB60FB683C
:101184007A4AA2FB03239B09013BBB60784B0222F2
:101194009A62774ABB68D362FB79013B032B00F266
:1011A400DC8001A252F823F0BD11000819120008D6
:1011B40075120008D1120008002000F029F900235C
:1011C400022208214120FFF76FFC6A4B1B68694A21
:1011D40023F00F031360674B1B68664A43F0010357
:1011E4001360634B9B69624A23F070039361604B05
:1011F4009B695F4A43F0600393615D4B9B695C4A62
:1012040043F0080393615A4B1B6A594A43F00103A4
:10121400136289E0002000F0FBF800230222092178
:101224004120FFF741FC534B1B68524A23F0F00363
:101234001360504B1B684F4A43F0100313604C4B30
:101244009B694B4A23F4E0439361494B9B69484AA9
:1012540043F4C0439361464B9B69454A43F400639E
:101264009361434B1B6A424A43F0100313625BE0F1
:10127400002000F0CDF8002302220A214120FFF7CC
:1012840013FC3C4B1B683B4A23F470631360394BDB
:101294001B68384A43F480731360354BDB69344A66
:1012A40023F07003D361324BDB69314A43F06003AE
:1012B400D3612F4BDB692E4A43F00803D3612C4BD7
:1012C4001B6A2B4A43F4807313622DE0002000F064
:1012D4009FF8002302220B214120FFF7E5FB254B59
:1012E4001B68244A23F470431360224B1B68214A71
:1012F40043F4805313601E4BDB691D4A23F4E0431F
:10130400D3611B4BDB691A4A43F4C043D361184BC6
:10131400DB69174A43F40063D361154B1B6A144A13
:1013240043F48053136200BF114B1B68104A43F00F
:10133400800313600E4B5B690D4A43F00103536154
:101344000B4B5B6C0A4A43F400435364084B1B6821
:10135400074A43F00103136000E000BF1037BD46A5
:1013640080BD00BF20000020AAB02800D34D621029
:10137400000001402400024080B485B000AF034661
:10138400FB80194BDB6AFB60FB88FA68013202FBC5
:1013940003F3164AA2FB03235B09BB60144B1B78BF
:1013A400013B032B1AD801A252F823F0C113000801
:1013B400C9130008D1130008D91300080A4ABB68EE
:1013C40053630CE0084ABB68936308E0064ABB68B1
:1013D400D36304E0044ABB68136400E000BF00BFA9
:1013E4001437BD4680BC7047000001401F85EB5197
:1013F4002000002080B400AF044B1B68034A43F074
:101404000103136000BFBD4680BC70470038024032
:1014140080B485B000AF0346FB71FB795B09FB73B5
:10142400FB7903F01F03BB73FB7B032B36D801A2AC
:1014340052F823F0491400085F14000875140008DA
:101444008B140008184B1B68BA7B012101FA02F2C5
:101454001146154A0B43136021E0144B1B68BA7BF9
:10146400012101FA02F21146104A0B43136016E0FF
:101474000F4B1B68BA7B012101FA02F211460C4A98
:101484000B4313600BE00B4B1B68BA7B012101FA81
:1014940002F21146074A0B43136000E000BF00BF8D
:1014A4001437BD4680BC704730380240343802409F
:1014B400403802404438024080B582B000AF034651
:1014C400FB714020FFF7A4FF0023022200214120EA
:1014D400FFF7EAFA4FF0804300221A60184B4F22BC
:1014E4001A60184B4FF0FF321A60FB79012B1BD1A5
:1014F400154B1B68144A43F001031360134B1B681C
:10150400124A23F003031360104B1B680F4A43F085
:10151400010313600C4B1B680B4A23F00A0313608E
:10152400094B094A1B6813604FF080431B684FF056
:10153400804243F00103136000BF0837BD4680BDFD
:10154400280000402C00004020000040180000400B
:1015540080B483B000AF0F4B1B6803F00203002B71
:1015640012D00D4B1B687B600C4B1B687A68D31A36
:101574003B600A4A7B681360064B1B68054A23F0EC
:10158400020313603B6800E0002318460C37BD4695
:1015940080BC70471000004034000040240000204C
:1015A40080B582B000AFFFF7D3FF78607B68002B73
:1015B40002D14FF000030EE07868FEF79FFE034669
:1015C40007491846FEF7F2FE034619464FF07E50CF
:1015D400FEF7A0FF034618460837BD4680BD00BF8E
:1015E400BD37863580B500AF0020FFF711FF01201D
:1015F400FFF70EFF0023012205214120FFF754FAD3
:101604000023012206214120FFF74EFA0023012284
:1016140004214220FFF748FA002301220521422039
:10162400FFF742FA0023012206214220FFF73CFA89
:101634000023012207214220FFF736FA0022052168
:101644004120FFF755FC002206214120FFF750FC02
:10165400322000F001FA032000F062F8052000F0C7
:10166400FBF9032000F05CF8962000F00DFA03204B
:1016740000F056F8962000F007FA022000F050F827
:10168400962000F001FA282000F00EF8082000F05F
:101694000BF8012000F008F8062000F005F80C20F3
:1016A40000F002F800BF80BD80B582B000AF0346F1
:1016B400FB71002205214120FFF71AFCFB791B096D
:1016C400DBB2184600F02CF8FB7903F00F03DBB211
:1016D400184600F025F8022000F0BEF900BF0837D4
:1016E400BD4680BD80B582B000AF0346FB710122C8
:1016F40005214120FFF7FCFBFB791B09DBB21846EF
:1017040000F00EF8FB7903F00F03DBB2184600F08B
:1017140007F8322000F0B8F900BF0837BD4680BD95
:1017240080B582B000AF0346FB71FB7903F001037F
:10173400DBB21A4604214220FFF7DAFBFB795B088F
:10174400DBB203F00103DBB21A4605214220FFF7A6
:10175400CFFBFB799B08DBB203F00103DBB21A4633
:1017640006214220FFF7C4FBFB79DB08DBB203F060
:101774000103DBB21A4607214220FFF7B9FB00F050
:1017840004F800BF0837BD4680BD80B500AF012214
:1017940006214120FFF7ACFB012000F075F900227F
:1017A40006214120FFF7A4FB012000F06DF900BFE2
:1017B40080BD80B582B000AF786009E07B6893F9A2
:1017C4000030DBB21846FFF78DFF7B6801337B6086
:1017D4007B6893F90030002BF0D100BF00BF0837BD
:1017E400BD4680BD80B584B000AF03460A46FB7198
:1017F4001346BB71FB79002B03D1BB79803BFB7390
:1018040008E0FB79012B03D1BB79403BFB7301E07A
:101814008023FB73FB7B1846FFF746FF00BF10379E
:10182400BD4680BD80B500AF0120FFF73DFF02201B
:1018340000F012F900BF80BD80B588B000AF7860B9
:101844000023FB777B68002B09D13020FFF74AFF88
:101854002020FFF747FF2020FFF744FF3FE07B688D
:10186400BB611AE0B9691F4BA3FB0123DA081346D5
:101874009B0013445B00CA1AD3B23033DAB2FB7F45
:10188400591CF97752B220333B4403F8182CBB6936
:10189400144AA2FB0323DB08BB61BB69002BE1D123
:1018A4000023FB750EE0FB7F013BFB77FB7F2033BE
:1018B4003B4413F9183CDBB21846FFF713FFFB7DDA
:1018C4000133FB75FB7F002BEDD105E02020FFF7F2
:1018D40009FFFB7D0133FB75FB7D022BF6D9203715
:1018E400BD4680BDCDCCCCCC80B588B000AF78608F
:1018F4000B46FB700023FB777B68002B11D1002380
:10190400BB7705E02020FFF7EDFEBB7F0133BB77FB
:10191400BA7FFB78013B9A42F4DB3020FFF7E2FE0A
:101924003DE07B68BB611AE0B9691E4BA3FB012350
:10193400DA0813469B0013445B00CA1AD3B230334F
:10194400DAB2FB7F591CF97752B220333B4403F8D7
:10195400142CBB69134AA2FB0323DB08BB61BB69DC
:10196400002BE1D107E0FB7F5A1CFA7720333B447C
:10197400202203F8142CFA7FFB789A42F3D30BE06D
:10198400FB7F013BFB77FB7F20333B4413F9143C83
:10199400DBB21846FFF7A6FEFB7F002BF0D1203701
:1019A400BD4680BDCDCCCCCC80B586B000AF7860D0
:1019B4000B46FB704FF000017868FEF795FE034676
:1019C400002B06D02D20FFF78DFE7B6883F00043AB
:1019D4007B607868FEF7B0FE0346FB60F868FFF7AB
:1019E4002BFF2E20FFF77EFEF868FEF787FC0346E8
:1019F40019467868FEF7D0FB03467B610023FB742D
:101A04001EE014497869FEF7D1FC03467B617869CE
:101A1400FEF792FE0346FB72FB7A3033DBB21846C4
:101A2400FFF760FEFB7A1846FEF76CFC0346194686
:101A34007869FEF7B1FB03467B61FB7C0133FB74E1
:101A4400FA7CFB789A42DCD300BF00BF1837BD464E
:101A540080BD00BF0000204180B584B000AF0346C4
:101A6400FB800023FB8106E04FF47A7000F00CF851
:101A7400FB890133FB81FA89FB889A42F4D300BFC6
:101A840000BF1037BD4680BD80B485B000AF0346AB
:101A9400FB80FB889B00FB6000BFFB685A1EFA605A
:101AA400002BFAD100BF00BF1437BD4680BC70477D
:101AB40080B500AF00F004F800F054F8FCE7000033
:101AC40080B500AFFFF796FC0020FFF7A1FC0120D2
:101AD400FFF79EFC6E20FFF79BFC4020FFF798FC6D
:101AE4000123002208214120FEF7DEFF0022082105
:101AF4004120FEF74FFF0820FEF7BEFF32210220EF
:101B0400FFF710FBFFF76EFD0120FFF7D5FC012264
:101B140001214120FEF776FE002301220F214220FD
:101B2400FEF7C2FF002301220E214220FEF7BCFF74
:101B34000123002209214220FEF7B6FF00220F21D3
:101B44004120FFF7D5F901220E214120FFF7D0F9FA
:101B5400034B1B78184600F08BF800BF80BD00BF14
:101B64002900002080B586B000AF2B4B1B78DBB278
:101B7400002B24D0294B1B78002B20D10020FFF709
:101B8400E4FAFFF74FFE00210120FFF72BFE244863
:101B9400FFF70FFE2020FFF7A5FD00237B6002E086
:101BA4007B6801337B607B6847F22F529342F7D9FD
:101BB4007B69002BEED1194B01221A7028E0164BD9
:101BC4001B78DBB2002B22D100F02EF803467B8277
:101BD4007B8A1846FFF7B9FA7B8A184600F086F824
:101BE40000F05CF8FFF7B4FCF8600E4A7B8A1380BF
:101BF4007B8A1846FFF7A9FA7B8A184600F076F824
:101C0400FFF7CEFCB860B86800F08AF800E000BFC7
:101C14001837BD4680BD00BF280000202B000020DF
:101C24002C1E00082C00002080B582B000AFFEF707
:101C34007DFE0346FB80FB88642203FB02F2064B15
:101C4400A3FB0213D21A52081344DB0ABB80BB88DD
:101C540018460837BD4680BD0101100080B500AFAD
:101C640009214220FFF70EFA0346184680BD000002
:101C740080B582B000AF0346FB7100210120FFF75D
:101C8400B1FD0548FFF795FDFB791846FFF7D4FD34
:101C940000BF0837BD4680BD3C1E000880B500AFBC
:101CA400FFF7DCFF03461A460D4B1A700D4B1B78E9
:101CB400012B0ED10A4B1B78002B0AD10A4B1B783F
:101CC4000133DAB2084B1A70074B1B781846FFF73A
:101CD400CFFF034B1A78034B1A7000BF80BD00BFBF
:101CE4002A000020000000202900002080B582B0D6
:101CF40000AF0346FB8000210020FFF773FD074877
:101D0400FFF757FDFB8803211846FFF7EDFD25205B
:101D1400FFF7E8FC00BF0837BD4680BD441E00083D
:101D240080B582B000AF786007210020FFF75AFD2C
:101D34000548FFF73EFD02217868FFF735FE00BF36
:101D44000837BD4680BD00BF481E000880B400AF00
:101D5400094B5B6903F48073002B08D0064B5B6965
:101D6400054A43F480735361044B01221A7000BF87
:101D7400BD4680BC704700BF003C014028000020E5
:101D840000200B490B4A0C4B02E01C580C50043049
:101D94000C189442F9D300200849094A01E008606C
:101DA40004319142FBD300F00FF8FFF781FE0000ED
:101DB4000000002004000020541E0008040000203D
:101DC40030000020FEE7000070B50D4B0D4D5B1B8D
:101DD4009C100026A64209D100F01AF80A4D0B4BBC
:101DE4005B1B9C100026A64205D170BD55F8043B30
:101DF40098470136EEE755F8043B98470136F2E779
:101E04004C1E00084C1E00084C1E0008501E000802
:101E1400F8B500BFF8BC08BC9E467047F8B500BFD3
:081E2400F8BC08BC9E467047A3
:101E2C00454D455247454E43592053544F500000A1
:101E3C00434E543A000000004D3A000050573A000F
:041E4C00E50700089E
:041E5000BD070008C2
:041E54000100000089
:0400000508001D854D
:00000001FF
