:020000040800F2
:1000000000800120550B0008990B0008990B00088F
:10001000990B0008990B0008990B000800000000DC
:10002000000000000000000000000000990B000824
:10003000990B000800000000990B0008990B0008BC
:10004000990B0008990B0008990B0008990B000800
:10005000990B0008990B0008990B0008990B0008F0
:10006000990B0008990B0008990B0008990B0008E0
:10007000990B0008990B0008990B0008990B0008D0
:10008000990B0008990B0008990B0008000000006C
:10009000000000000000000000000000990B0008B4
:1000A000990B0008990B0008990B0008990B0008A0
:1000B000990B0008990B0008990B0008990B000890
:1000C000990B0008990B0008990B0008990B000880
:1000D000990B0008990B0008990B0008000000001C
:1000E000990B0008990B0008990B0008000000000C
:1000F000000000000000000000000000990B000854
:1001000000000000990B0008990B0008990B0008EB
:1001100000000000000000000000000000000000DF
:10012000990B0008990B0008990B0008990B00081F
:10013000990B000800000000000000000000000013
:10014000000000000000000000000000990B000803
:10015000990B0008990B0008990B0008990B0008EF
:10016000990B0008990B0008000000000000000037
:10017000000000000000000000000000000000007F
:1001800000000000990B00080000000000000000C3
:04019000990B0008BF
:100194000348044B834202D0034B03B11847704712
:1001A4000000002000000020000000000548064B6D
:1001B4001B1AD90F01EBA301491002D0034B03B161
:1001C40018477047000000200000002000000000D5
:1001D40010B5064C237843B9FFF7DAFF044B13B18B
:1001E4000448AFF300800123237010BD00000020F9
:1001F40000000000E40B000808B5054B1BB10549DD
:100204000548AFF30080BDE80840FFF7CFBF00BF4B
:100214000000000004000020E40B000880B582B058
:1002240000AF0346FB710B46BB7113467B71B97972
:10023400F8790023032200F099F8682000F0D0FB3D
:100244003C4B5B683B4A23F440335360394B394A97
:100254005B685360384B5B68374A23F040735360E4
:10026400354B354A5B685360334B00229A60324BFE
:100274009B68314A43F0010393602F4B9B682E4ADD
:1002840023F0020393602C4B9B682B4A43F4806356
:1002940093607B79092B19D8274B19697A7913460E
:1002A4005B001344072202FA03F3DB43224A0B40A8
:1002B4001361214B19697A7913465B0013440422B4
:1002C40002FA03F31C4A0B4313611CE01A4BD9686E
:1002D4007B79A3F10A0213465B001344072202FA56
:1002E40003F3DB43144A0B40D360134BD9687B7987
:1002F400A3F10A0213465B001344042202FA03F337
:100304000D4A0B43D3600C4BDB6A0B4A23F4700396
:10031400D362094B5B6B084A23F01F035363064BFC
:100324005A6B7B79044913434B6300BF0837BD46BE
:1003340080BD00BF002301400020014080B400AF15
:10034400094B9B68084A43F08043936000BF064B07
:100354001B6803F00203002BF9D0034BDB6C9BB248
:100364001846BD4680BC70470020014090B482B05E
:1003740000AF0446084611461A462346FB7103465D
:10038400BB710B467B7113463B71FB79413B032BDD
:1003940000F22C8101A252F823F000BFB10300083F
:1003A40041040008D104000861050008924B1B6851
:1003B400BA795200032101FA02F2D24311468E4A5D
:1003C4000B4013608C4B1B687979BA79520001FA9F
:1003D40002F21146884A0B4313607B79002B17D134
:1003E400864B1B68BA795200032101FA02F2D24308
:1003F4001146824A0B401360804B1B683979BA79E5
:10040400520001FA02F211467C4A0B431360EEE0FB
:100414007B4B1B68BA79012101FA02F2D2431146DF
:10042400774A0B401360764B1B683979BA7901FA25
:1004340002F21146724A0B431360D8E0714B1B68F9
:10044400BA795200032101FA02F2D24311466D4AED
:100454000B4013606B4B1B687979BA79520001FA2F
:1004640002F21146674A0B4313607B79002B17D1C4
:10047400654B1B68BA795200032101FA02F2D24398
:100484001146614A0B4013605F4B1B683979BA7996
:10049400520001FA02F211465B4A0B431360A6E0D4
:1004A4005A4B1B68BA79012101FA02F2D243114670
:1004B400564A0B401360554B1B683979BA7901FAD7
:1004C40002F21146514A0B43136090E0504B1B68F3
:1004D400BA795200032101FA02F2D24311464C4A7E
:1004E4000B4013604A4B1B687979BA79520001FAC0
:1004F40002F21146464A0B4313607B79002B17D155
:10050400444B1B68BA795200032101FA02F2D24328
:100514001146404A0B4013603E4B1B683979BA7947
:10052400520001FA02F211463A4A0B4313605EE0AC
:10053400394B1B68BA79012101FA02F2D243114600
:10054400354A0B401360344B1B683979BA7901FA88
:1005540002F21146304A0B43136048E02F4B1B68EC
:10056400BA795200032101FA02F2D24311462B4A0E
:100574000B401360294B1B687979BA79520001FA50
:1005840002F21146254A0B4313607B79002B17D1E5
:10059400234B1B68BA795200032101FA02F2D243B9
:1005A40011461F4A0B4013601D4B1B683979BA79F9
:1005B400520001FA02F21146194A0B43136016E085
:1005C400184B1B68BA79012101FA02F2D243114691
:1005D400144A0B401360134B1B683979BA7901FA3A
:1005E40002F211460F4A0B43136000E000BF00BF44
:1005F4000837BD4690BC7047000002400C00024022
:1006040004000240000402400C04024004040240BE
:10061400000802400C08024004080240000C02409A
:100624000C0C0240040C024080B485B000AF0346B9
:10063400FB710B46BB7113467B71FB79413B032B6A
:1006440036D801A252F823F05D06000873060008AC
:10065400890600089F060008504B1A68BB795B00A6
:1006640022FA03F3DBB203F00303FB7321E04C4BE8
:100674001A68BB795B0022FA03F3DBB203F00303CD
:10068400FB7316E0474B1A68BB795B0022FA03F34D
:10069400DBB203F00303FB730BE0434B1A68BB7933
:1006A4005B0022FA03F3DBB203F00303FB7300E005
:1006B40000BFFB7B002B01D1012369E0FB79413BA7
:1006C400032B63D801A252F823F000BFE10600080F
:1006D4000D0700083907000865070008334B1B683D
:1006E400BA79012101FA02F2D24311462F4A0B4092
:1006F40013602E4B1B687979BA7901FA02F211461C
:100704002A4A0B43136042E0294B1B68BA79012142
:1007140001FA02F2D2431146254A0B401360244BDE
:100724001B687979BA7901FA02F21146204A0B431F
:1007340013602CE01F4B1B68BA79012101FA02F205
:10074400D24311461B4A0B4013601A4B1B6879793C
:10075400BA7901FA02F21146164A0B43136016E005
:10076400154B1B68BA79012101FA02F2D2431146F2
:10077400114A0B401360104B1B687979BA7901FA5E
:1007840002F211460C4A0B43136000E000BF002341
:1007940018461437BD4680BC704700BF00000240B5
:1007A4000004024000080240000C02401400024011
:1007B4001404024014080240140C024080B582B0B4
:1007C40000AF03460A46FB711346BB80012000F0CC
:1007D40015F8BB88184600F0C7F800BF0837BD46B7
:1007E40080BD80B582B000AF0346FB80FB8818460D
:1007F40000F0BAF800BF0837BD4680BD80B584B0AC
:1008040000AF0346FB71534AFB791370402000F09C
:10081400E7F8002000F0E4F84F4B1B684E4A23F041
:10082400030313604C4B1B684B4A43F002031360F1
:100834004A4B1B68FA79013A92000F2101FA02F23D
:10084400D2431146454A0B401360444B1B68FA7966
:10085400013A9200012101FA02F211463F4A0B4388
:1008640013603F4BFB60FB683E4AA2FB03239B09DA
:10087400013BBB604FF0804302229A624FF08042FA
:10088400BB68D3624FF0804300225A63FB79012B8B
:1008940020D14FF080439B694FF0804223F07003D6
:1008A40093614FF080439B694FF0804243F06003B3
:1008B40093614FF080439B694FF0804243F00803FB
:1008C40093614FF080431B6A4FF0804243F0010371
:1008D400136222E0FB79022B1FD14FF080439B6906
:1008E4004FF0804223F4704393614FF080439B693F
:1008F4004FF0804243F4C04393614FF080439B69BF
:100904004FF0804243F4006393614FF080431B6ACD
:100914004FF0804243F0100313624FF080431B6892
:100924004FF0804243F0800313604FF080435B69D3
:100934004FF0804243F0010353614FF080431B6842
:100944004FF0804243F00103136000BF1037BD46EF
:1009540080BD00BF1C0000200000024020000240B7
:10096400AAB02800D34D621080B485B000AF03460E
:10097400FB804FF08043DB6AFB60FB88FA6801323E
:1009840002FB03F30D4AA2FB03235B09BB600C4B80
:100994001B78012B04D14FF08042BB68536307E0FE
:1009A400074B1B78022B03D14FF08042BB68936343
:1009B40000BF1437BD4680BC704700BF1F85EB5194
:1009C4001C00002080B400AF044B1B68034A43F0B2
:1009D4000103136000BFBD4680BC7047003802406D
:1009E40080B485B000AF0346FB71FB795B09FB73F0
:1009F400FB7903F01F03BB73FB7B032B36D801A2E7
:100A040052F823F0190A00082F0A0008450A0008C2
:100A14005B0A0008184B1B68BA7B012101FA02F239
:100A24001146154A0B43136021E0144B1B68BA7B33
:100A3400012101FA02F21146104A0B43136016E039
:100A44000F4B1B68BA7B012101FA02F211460C4AD2
:100A54000B4313600BE00B4B1B68BA7B012101FABB
:100A640002F21146074A0B43136000E000BF00BFC7
:100A74001437BD4680BC70473038024034380240D9
:100A8400403802404438024080B500AF00F003F81B
:100A940000F035F8FCE780B500AFFFF793FF0020C6
:100AA400FFF79EFF0120FFF79BFF32210120FFF794
:100AB40085FE6E20FFF794FF012201214120FFF7FC
:100AC400ADFB0023012200214220FFF74FFC00234D
:100AD400012201214220FFF749FC012300220321C6
:100AE4004120FFF743FC012200214220FFF79CFD37
:100AF400002201214220FFF797FD00BF80BD80B591
:100B040082B000AF00F00AF80346FB80FB88184669
:100B1400FFF767FE00BF0837BD4680BD80B582B0D1
:100B240000AFFFF70BFC0346FB80FB88642202FB4B
:100B340003F3064A82FB03121A44D212DB17D31AB8
:100B4400BB80BB8818460837BD4680BD810008803D
:100B540000200B490B4A0C4B02E01C580C5004308B
:100B64000C189442F9D300200849094A01E00860AE
:100B740004319142FBD300F00FF8FFF785FF00002A
:100B84000000002000000020040C000800000020E9
:100B940020000020FEE7000070B50D4B0D4D5B1BDF
:100BA4009C100026A64209D100F01AF80A4D0B4BFE
:100BB4005B1B9C100026A64205D170BD55F8043B72
:100BC40098470136EEE755F8043B98470136F2E7BB
:100BD400FC0B0008FC0B0008FC0B0008000C0008D0
:100BE400F8B500BFF8BC08BC9E467047F8B500BF16
:080BF400F8BC08BC9E467047E6
:040BFC00FD010008EF
:040C0000D501000812
:0400000508000B558F
:00000001FF
