:020000040800F2
:10000000008001209D170008E1170008E117000893
:10001000E1170008E1170008E117000800000000E0
:10002000000000000000000000000000E1170008D0
:10003000E117000800000000E1170008E1170008C0
:10004000E1170008E1170008E1170008E1170008B0
:10005000E1170008E1170008E1170008E1170008A0
:10006000E1170008E1170008E1170008E117000890
:10007000E1170008E1170008E1170008E117000880
:10008000E1170008E1170008E11700080000000070
:1000900000000000000000000000000069170008D8
:1000A000E1170008E1170008E1170008E117000850
:1000B000E1170008E1170008E1170008E117000840
:1000C000E1170008E1170008E1170008E117000830
:1000D000E1170008E1170008E11700080000000020
:1000E000E1170008E1170008E11700080000000010
:1000F000000000000000000000000000E117000800
:1001000000000000E1170008E1170008E1170008EF
:1001100000000000000000000000000000000000DF
:10012000E1170008E1170008E1170008E1170008CF
:10013000E1170008000000000000000000000000BF
:10014000000000000000000000000000E1170008AF
:10015000E1170008E1170008E1170008E11700089F
:10016000E1170008E117000800000000000000008F
:10017000000000000000000000000000000000007F
:1001800000000000E117000800000000000000006F
:04019000E11700086B
:100194000348044B834202D0034B03B11847704712
:1001A4000400002004000020000000000548064B65
:1001B4001B1AD90F01EBA301491002D0034B03B161
:1001C40018477047040000200400002000000000CD
:1001D40010B5064C237843B9FFF7DAFF044B13B18B
:1001E4000448AFF300800123237010BD04000020F5
:1001F400000000002C18000808B5054B1BB1054988
:100204000548AFF30080BDE80840FFF7CFBF00BF4B
:1002140000000000080000202C18000880B582B0FF
:1002240000AF0346FB710B46BB7113467B71B97972
:10023400F8790023032200F03FF9682000F06EFEF5
:100244003C4B5B683B4A23F440335360394B394A97
:100254005B685360384B5B68374A23F040735360E4
:10026400354B354A5B685360334B00229A60324BFE
:100274009B68314A43F0010393602F4B9B682E4ADD
:1002840023F0020393602C4B9B682B4A43F4806356
:1002940093607B79092B19D8274B19697A7913460E
:1002A4005B001344072202FA03F3DB43224A0B40A8
:1002B4001361214B19697A7913465B0013440422B4
:1002C40002FA03F31C4A0B4313611CE01A4BD9686E
:1002D4007B79A3F10A0213465B001344072202FA56
:1002E40003F3DB43144A0B40D360134BD9687B7987
:1002F400A3F10A0213465B001344042202FA03F337
:100304000D4A0B43D3600C4BDB6A0B4A23F4700396
:10031400D362094B5B6B084A23F01F035363064BFC
:100324005A6B7B79044913434B6300BF0837BD46BE
:1003340080BD00BF002301400020014080B400AF15
:10034400094B9B68084A43F08043936000BF064B07
:100354001B6803F00203002BF9D0034BDB6C9BB248
:100364001846BD4680BC70470020014080B483B06D
:1003740000AF0346FB7197F90730002B0BDBFB79C9
:1003840003F01F02064997F907305B09012000FAC0
:1003940002F241F8232000BF0C37BD4680BC7047F1
:1003A40000E100E080B485B000AF0346FB710B466A
:1003B400BB7113467B71FB79413BFB737B79002B4B
:1003C4000AD12F4BDB68BA79012101FA02F21146F6
:1003D4002B4A0B43D36024E07B79012B0AD1284BB1
:1003E4009B68BA79012101FA02F21146244A0B43AF
:1003F400936016E07B79022B13D1214BDB68BA7929
:10040400012101FA02F211461D4A0B43D3601C4B31
:100414009B68BA79012101FA02F21146184A0B438A
:100424009360BB799B08BB73BB7903F00303DBB216
:100434009B007B73134ABB7B023352F823207B7BE4
:100444000F2101FA03F3DB4318460E49BB7B02403C
:10045400023341F823200B4ABB7B023352F823209A
:10046400F97B7B7B01FA03F318460649BB7B024305
:10047400023341F8232000BF1437BD4680BC7047C7
:10048400003C01400038014080B582B000AF034613
:10049400FB71084B1B68FA79012101FA02F211463B
:1004A400044A0B4313601720FFF760FF00BF0837AF
:1004B400BD4680BD003C014090B482B000AF04460C
:1004C400084611461A462346FB710346BB710B4688
:1004D4007B7113463B71FB79413B032B00F2F8819E
:1004E40001A252F823F000BFFD040008050600082D
:1004F4000D070008450800089C4B1B68BA79520098
:10050400032101FA02F2D2431146984A0B401360C8
:10051400964B1B687979BA79520001FA02F21146B6
:10052400924A0B4313607B79002B17D1904B1B68C5
:10053400BA795200032101FA02F2D24311468C4ADD
:100544000B4013608A4B1B683979BA79520001FA5F
:1005540002F21146864A0B431360BBE17B79012BFF
:1005640015D1844B1B68BA79012101FA02F2D243F6
:100574001146804A0B4013607E4B1B683979BA7967
:1005840001FA02F211467B4A0B431360A2E17B7924
:10059400022B40F09F81BB79072B17D8764B1B6841
:1005A400BA7992000F2101FA02F2D2431146724A3B
:1005B4000B401360704B1B68BA799200012101FA59
:1005C40002F211466C4A0B43136083E16B4B1B68C8
:1005D400BA79083A92000F2101FA02F2D243114685
:1005E400664A0B401360654B1B68BA79083A92005F
:1005F400012101FA02F21146604A0B43136069E1DA
:100604005F4B1B68BA795200032101FA02F2D2430C
:1006140011465B4A0B401360594B1B687979BA79D0
:10062400520001FA02F21146554A0B4313607B79DA
:10063400002B17D1534B1B68BA795200032101FADE
:1006440002F2D24311464F4A0B4013604D4B1B68D4
:100654003979BA79520001FA02F21146494A0B4338
:10066400136039E17B79012B15D1474B1B68BA79AB
:10067400012101FA02F2D2431146434A0B401360AE
:10068400414B1B683979BA7901FA02F211463E4AA4
:100694000B43136020E17B79022B40F01D81BB7971
:1006A400072B17D8394B1B68BA7992000F2101FA2E
:1006B40002F2D2431146354A0B401360334B1B6898
:1006C400BA799200012101FA02F211462F4A0B4332
:1006D400136001E12E4B1B68BA79083A92000F218E
:1006E40001FA02F2D2431146294A0B401360284B07
:1006F4001B68BA79083A9200012101FA02F2114604
:10070400234A0B431360E7E0224B1B68BA7952007B
:10071400032101FA02F2D24311461E4A0B40136030
:100724001C4B1B687979BA79520001FA02F211461E
:10073400184A0B4313607B79002B2FD1164B1B688F
:10074400BA795200032101FA02F2D2431146124A45
:100754000B401360104B1B683979BA79520001FAC7
:1007640002F211460C4A0B431360B7E0000002404A
:100774000C00024004000240200002402400024019
:10078400000402400C04024004040240200402401D
:1007940024040240000802400C0802407B79012B2B
:1007A40015D1514B1B68BA79012101FA02F2D243E7
:1007B40011464D4A0B4013604B4B1B683979BA798B
:1007C40001FA02F21146484A0B43136086E07B7932
:1007D400022B40F08380BB79072B17D8434B1B684F
:1007E400BA7992000F2101FA02F2D24311463F4A2C
:1007F4000B4013603D4B1B68BA799200012101FA4A
:1008040002F21146394A0B43136067E0384B1B6808
:10081400BA79083A92000F2101FA02F2D243114642
:10082400334A0B401360324B1B68BA79083A920082
:10083400012101FA02F211462D4A0B4313604DE0E7
:100844002C4B1B68BA795200032101FA02F2D243FD
:100854001146284A0B401360264B1B687979BA79F4
:10086400520001FA02F21146224A0B4313607B79CB
:10087400002B17D1204B1B68BA795200032101FACF
:1008840002F2D24311461C4A0B4013601A4B1B68F8
:100894003979BA79520001FA02F21146164A0B4329
:1008A40013601CE0154B1B68BA79012101FA02F2AE
:1008B400D2431146114A0B401360104B1B6839791F
:1008C400BA7901FA02F211460C4A0B43136006E0AE
:1008D40000BF04E000BF02E000BF00E000BF00BFB3
:1008E4000837BD4690BC7047040802402008024007
:1008F40024080240000C02400C0C0240040C02408C
:1009040080B485B000AF0346FB710B46BB71134640
:100914007B71FB79413B032B36D801A252F823F0BB
:10092400350900084B090008610900087709000827
:10093400504B1A68BB795B0022FA03F3DBB203F075
:100944000303FB7321E04C4B1A68BB795B0022FA6A
:1009540003F3DBB203F00303FB7316E0474B1A689F
:10096400BB795B0022FA03F3DBB203F00303FB73EE
:100974000BE0434B1A68BB795B0022FA03F3DBB24A
:1009840003F00303FB7300E000BFFB7B002B01D1EA
:10099400012369E0FB79413B032B63D801A252F8A0
:1009A40023F000BFB9090008E5090008110A00088E
:1009B4003D0A0008334B1B68BA79012101FA02F29F
:1009C400D24311462F4A0B4013602E4B1B68797992
:1009D400BA7901FA02F211462A4A0B43136042E043
:1009E400294B1B68BA79012101FA02F2D24311465C
:1009F400254A0B401360244B1B687979BA7901FAB4
:100A040002F21146204A0B4313602CE01F4B1B6873
:100A1400BA79012101FA02F2D24311461B4A0B4072
:100A240013601A4B1B687979BA7901FA02F21146FC
:100A3400164A0B43136016E0154B1B68BA79012163
:100A440001FA02F2D2431146114A0B401360104BD3
:100A54001B687979BA7901FA02F211460C4A0B4300
:100A6400136000E000BF002318461437BD4680BC65
:100A7400704700BF0000024000040240000802402A
:100A8400000C024014000240140402401408024006
:100A9400140C024080B485B000AF03460A46FB71D3
:100AA4001346BB71FB79413B032B33D801A252F8A7
:100AB40023F000BFC90A0008DD0A0008F10A000893
:100AC400050B0008174B1A68BB7922FA03F3DBB253
:100AD40003F00103FB731EE0134B1A68BB7922FA7F
:100AE40003F3DBB203F00103FB7314E00F4B1A684A
:100AF400BB7922FA03F3DBB203F00103FB730AE0D0
:100B04000B4B1A68BB7922FA03F3DBB203F001033F
:100B1400FB7300E000BFFB7B18461437BD4680BC66
:100B2400704700BF10000240100402401008024049
:100B3400100C024080B582B000AF03460A46FB7138
:100B44001346BB80012000F031F8BB88184600F042
:100B540089F900BF0837BD4680BD80B500AF00F0FD
:100B6400C1F9002301220A214220FFF7A5FC00223B
:100B74000A214220FFF7C4FE00220E214120FFF784
:100B8400BFFE00220F214120FFF7BAFE00BF80BD47
:100B940080B582B000AF0346FB80FB88184600F0A6
:100BA40061F900BF0837BD4680BD000080B584B040
:100BB40000AF0346FB71A44AFB791370402000F098
:100BC400ADF9002000F0AAF9A04BFB60FB68A04A35
:100BD400A2FB03239B09013BBB604FF0804302222D
:100BE4009A624FF08042BB68D3624FF08043002288
:100BF4005A63FB79012B45D1964B1B68954A23F028
:100C040003031360934B1B68924A43F0020313607F
:100C1400914B1B68FA79013A92000F2101FA02F212
:100C2400D24311468C4A0B4013608B4B1B68FA79F4
:100C3400013A9200012101FA02F21146864A0B435D
:100C440013604FF080439B694FF0804223F07003A0
:100C540093614FF080439B694FF0804243F06003FF
:100C640093614FF080439B694FF0804243F0080347
:100C740093614FF080431B6A4FF0804243F00103BD
:100C84001362C5E0FB79022B45D1724B1B68714A94
:100C940023F0030313606F4B1B686E4A43F0020397
:100CA40013606D4B1B68FA79013A92000F2101FA27
:100CB40002F2D2431146684A0B401360664B1B682C
:100CC400FA79013A9200012101FA02F21146624ACC
:100CD4000B4313604FF080439B694FF0804223F431
:100CE400E04393614FF080439B694FF0804243F4AB
:100CF400C04393614FF080439B694FF0804243F4BB
:100D0400006393614FF080431B6A4FF0804243F0CD
:100D1400100313627CE0FB79032B3BD1012000F02C
:100D2400FDF84E4B1B684D4A23F4401313604B4BA4
:100D34001B684A4A43F400131360494B1B68484A32
:100D440023F470631360464B1B68454A43F4807375
:100D540013604FF08043DB694FF0804223F070034F
:100D6400D3614FF08043DB694FF0804243F060036E
:100D7400D3614FF08043DB694FF0804243F00803B6
:100D8400D3614FF080431B6A4FF0804243F4807379
:100D940013623DE0FB79042B3AD1012000F0BEF848
:100DA4002E4B1B682D4A23F4400313602B4B1B6806
:100DB4002A4A43F400031360294B1B68284A23F48E
:100DC40070431360264B1B68254A43F48053136019
:100DD4004FF08043DB694FF0804223F4E043D3615A
:100DE4004FF08043DB694FF0804243F4C043D3614A
:100DF4004FF08043DB694FF0804243F40063D361DA
:100E04004FF080431B6A4FF0804243F480531362D7
:100E14004FF080431B684FF0804243F0800313601F
:100E24004FF080435B694FF0804243F0010353610C
:100E34004FF080431B684FF0804243F0010313607E
:100E440000BF1037BD4680BD20000020AAB0280096
:100E5400D34D621000000240200002400004024012
:100E64002404024080B485B000AF0346FB804FF0F9
:100E74008043DB6AFB60FB88FA68013202FB03F300
:100E8400164AA2FB03235B09BB60154B1B78012B9D
:100E940004D14FF08042BB68536319E0104B1B78B8
:100EA400022B04D14FF08042BB68936310E00C4BDB
:100EB4001B78032B04D14FF08042BB68D36307E057
:100EC400074B1B78042B03D14FF08042BB6813649B
:100ED40000BF1437BD4680BC704700BF1F85EB516F
:100EE4002000002080B400AF4FF080431B684FF017
:100EF400804223F00103136000BFBD4680BC7047ED
:100F040080B400AF044B1B68034A43F00103136031
:100F140000BFBD4680BC70470038024080B485B035
:100F240000AF0346FB71FB795B09FB73FB7903F0AC
:100F34001F03BB73FB7B032B36D801A252F823F0AB
:100F4400550F00086B0F0008810F0008970F000869
:100F5400184B1B68BA7B012101FA02F21146154AAB
:100F64000B43136021E0144B1B68BA7B012101FA87
:100F740002F21146104A0B43136016E00F4B1B6834
:100F8400BA7B012101FA02F211460C4A0B431360A9
:100F94000BE00B4B1B68BA7B012101FA02F21146EC
:100FA400074A0B43136000E000BF00BF1437BD467F
:100FB40080BC704730380240343802404038024028
:100FC4004438024080B582B000AF0346FB71402034
:100FD400FFF7A4FF0023022200214120FFF76CFA4F
:100FE4004FF0804300221A60184B4F221A60184BAE
:100FF4004FF0FF321A60FB79012B1BD1154B1B6894
:10100400144A43F001031360134B1B68124A23F084
:1010140003031360104B1B680F4A43F00103136072
:101024000C4B1B680B4A23F00A031360094B094A53
:101034001B6813604FF080431B684FF0804243F0FD
:101044000103136000BF0837BD4680BD280000407F
:101054002C000040200000401800004080B483B001
:1010640000AF0F4B1B6803F00203002B12D00D4B93
:101074001B687B600C4B1B687A68D31A3B600A4A76
:101084007B681360064B1B68054A23F00203136058
:101094003B6800E0002318460C37BD4680BC70470F
:1010A40010000040340000402400002080B500AF50
:1010B4000020FFF733FF0120FFF730FF0023012258
:1010C40005214120FFF7F8F90023012206214120E0
:1010D400FFF7F2F90023012204214220FFF7ECF983
:1010E4000023012205214220FFF7E6F90023012213
:1010F40006214220FFF7E0F90023012207214220C4
:10110400FFF7DAF9002205214120FFF7F9FB00225D
:1011140006214120FFF7F4FB322000F0A9F9032057
:1011240000F062F8052000F0A3F9032000F05CF859
:10113400962000F0B5F9032000F056F8962000F050
:10114400AFF9022000F050F8962000F0A9F9282009
:1011540000F00EF8082000F00BF8012000F008F869
:10116400062000F005F80C2000F002F800BF80BD56
:1011740080B582B000AF0346FB71002205214120F7
:10118400FFF7BEFBFB791B09DBB2184600F02CF815
:10119400FB7903F00F03DBB2184600F025F80220B8
:1011A40000F066F900BF0837BD4680BD80B582B047
:1011B40000AF0346FB71012205214120FFF7A0FB8C
:1011C400FB791B09DBB2184600F00EF8FB7903F03B
:1011D4000F03DBB2184600F007F8322000F060F984
:1011E40000BF0837BD4680BD80B582B000AF03465E
:1011F400FB71FB7903F00103DBB21A4604214220A0
:10120400FFF77EFBFB795B08DBB203F00103DBB283
:101214001A4605214220FFF773FBFB799B08DBB2DA
:1012240003F00103DBB21A4606214220FFF768FBF4
:10123400FB79DB08DBB203F00103DBB21A460721BA
:101244004220FFF75DFB00F004F800BF0837BD46FD
:1012540080BD80B500AF012206214120FFF750FB7D
:10126400012000F01DF9002206214120FFF748FB70
:10127400012000F015F900BF80BD80B582B000AF39
:10128400786009E07B6893F90030DBB21846FFF719
:101294008DFF7B6801337B607B6893F90030002B02
:1012A400F0D100BF00BF0837BD4680BD80B584B013
:1012B40000AF03460A46FB711346BB71FB79002B52
:1012C40003D1BB79803BFB7308E0FB79012B03D18D
:1012D400BB79403BFB7301E08023FB73FB7B184627
:1012E400FFF746FF00BF1037BD4680BD80B500AF95
:1012F4000120FFF73DFF022000F0BAF800BF80BDD7
:1013040080B588B000AF78600023FB777B68002B42
:1013140009D13020FFF74AFF2020FFF747FF2020A4
:10132400FFF744FF3FE07B68BB611AE0B9691F4BDC
:10133400A3FB0123DA0813469B0013445B00CA1A7B
:10134400D3B23033DAB2FB7F591CF97752B220336F
:101354003B4403F8182CBB69144AA2FB0323DB08A3
:10136400BB61BB69002BE1D10023FB750EE0FB7F61
:10137400013BFB77FB7F20333B4413F9183CDBB282
:101384001846FFF713FFFB7D0133FB75FB7F002B32
:10139400EDD105E02020FFF709FFFB7D0133FB754C
:1013A400FB7D022BF6D92037BD4680BDCDCCCCCCFD
:1013B40080B588B000AF78600B46FB700023FB77E4
:1013C4007B68002B11D10023BB7705E02020FFF7B9
:1013D400EDFEBB7F0133BB77BA7FFB78013B9A42BA
:1013E400F4DB3020FFF7E2FE3DE07B68BB611AE0EE
:1013F400B9691E4BA3FB0123DA0813469B0013446F
:101404005B00CA1AD3B23033DAB2FB7F591CF977C6
:1014140052B220333B4403F8142CBB69134AA2FB99
:101424000323DB08BB61BB69002BE1D107E0FB7F31
:101434005A1CFA7720333B44202203F8142CFA7FF9
:10144400FB789A42F3D30BE0FB7F013BFB77FB7FF6
:1014540020333B4413F9143CDBB21846FFF7A6FED5
:10146400FB7F002BF0D12037BD4680BDCDCCCCCC4A
:1014740080B584B000AF0346FB800023FB8106E007
:101484004FF47A7000F00CF8FB890133FB81FA8980
:10149400FB889A42F4D300BF00BF1037BD4680BD1D
:1014A40080B485B000AF0346FB80FB889B00FB60E3
:1014B40000BFFB685A1EFA60002BFAD100BF00BFC0
:1014C4001437BD4680BC704780B500AF00F003F808
:1014D40000F056F8FCE780B500AFFFF711FD0020DF
:1014E400FFF71CFD0120FFF719FD6E20FFF716FD25
:1014F4004020FFF713FD0123002208214120FEF7BD
:10150400DBFF002208214120FEF74CFF0820FEF7F4
:10151400BBFF32210320FFF70DFBFFF7C7FD0120BE
:10152400FFF750FD012201214120FEF777FE002341
:1015340001220F214220FEF7BFFF002301220E21CA
:101544004220FEF7B9FF0123002209214220FEF7C1
:10155400B3FF00220F214120FFF7D2F901220E210F
:101564004120FFF7CDF90023012207214120FEF796
:10157400A3FF012207214120FFF7C2F900BF80BD6C
:1015840080B584B000AF344B1B78DBB2002B34D071
:10159400324B1B78002B30D10020FFF7F9FAFFF70C
:1015A400DCFAFFF7A3FE00210020FFF77FFE2C48A2
:1015B400FFF763FEFFF752FDF86000210120FFF7FB
:1015C40075FE2848FFF759FE0521F868FFF7F0FE7D
:1015D4002020FFF7EBFD00233B6002E03B68013372
:1015E4003B603B6847F22F529342F7D9FB68002BCC
:1015F400E0D11A4B01221A702AE0174B1B78DBB298
:10160400002B24D100F032F803467B817B891846F5
:10161400FFF7BEFA7B89184600F08AF800F060F8FC
:10162400FFF71CFD7860104A7B8913807B8918467C
:10163400FFF7AEFA7B89184600F07AF87B68002B36
:1016440006D0002207214120FFF75AF900E000BF2D
:101654001037BD4680BD00BF280000202B000020AD
:1016640044180008541800082C00002080B582B0EB
:1016740000AFFEF763FE0346FB80FB88642203FB96
:1016840002F2064BA3FB0213D21A52081344DB0ADC
:10169400BB80BB8818460837BD4680BD01011000D9
:1016A40080B500AF09214220FFF7F4F9034618463C
:1016B40080BD000080B582B000AF0346FB710121FC
:1016C4000020FFF7F3FD0548FFF7D7FDFB79184627
:1016D400FFF716FE00BF0837BD4680BD5C18000842
:1016E40080B500AFFFF7DCFF03461A460D4B1A70B6
:1016F4000D4B1B78012B0ED10A4B1B78002B0AD102
:101704000A4B1B780133DAB2084B1A70074B1B786B
:101714001846FFF7CFFF034B1A78034B1A7000BF2C
:1017240080BD00BF2A000020000000202900002006
:1017340080B582B000AF0346FB8000210120FFF793
:10174400B5FD0748FFF799FDFB8803211846FFF70D
:101754002FFE2520FFF72AFD00BF0837BD4680BDB8
:101764006418000880B400AF094B5B6903F480730C
:10177400002B08D0064B5B69054A43F48073536120
:10178400044B01221A7000BFBD4680BC704700BFE5
:10179400003C01402800002000200B490B4A0C4B60
:1017A40002E01C580C5004300C189442F9D3002069
:1017B4000849094A01E0086004319142FBD300F072
:1017C4000FF8FFF781FE0000000000200400002055
:1017D400741800080400002030000020FEE7000018
:1017E40070B50D4B0D4D5B1B9C100026A64209D114
:1017F40000F01AF80A4D0B4B5B1B9C100026A64206
:1018040005D170BD55F8043B98470136EEE755F80D
:10181400043B98470136F2E76C1800086C1800087E
:101824006C18000870180008F8B500BFF8BC08BCB4
:101834009E467047F8B500BFF8BC08BC9E4670478A
:10184400454D455247454E43592053544F5000008F
:1018540053706565643A2000436F756E743A0000F6
:081864004D6F746F723A200011
:04186C00FD01000872
:04187000D501000896
:04187400010000006F
:040000050800179D3B
:00000001FF
