:020000040800F2
:1000000000800120A50F0008E90F0008E90F000893
:10001000E90F0008E90F0008E90F000800000000E0
:10002000000000000000000000000000E90F0008D0
:10003000E90F000800000000E90F0008E90F0008C0
:10004000E90F0008E90F0008E90F0008E90F0008B0
:10005000E90F0008E90F0008E90F0008E90F0008A0
:10006000E90F0008E90F0008E90F0008E90F000890
:10007000E90F0008E90F0008E90F0008E90F000880
:10008000E90F0008E90F0008E90F00080000000070
:10009000000000000000000000000000E90F000860
:1000A000E90F0008E90F0008E90F0008E90F000850
:1000B000E90F0008E90F0008E90F0008E90F000840
:1000C000E90F0008E90F0008E90F0008E90F000830
:1000D000E90F0008E90F0008E90F00080000000020
:1000E000E90F0008E90F0008E90F00080000000010
:1000F000000000000000000000000000E90F000800
:1001000000000000E90F0008E90F0008E90F0008EF
:1001100000000000000000000000000000000000DF
:10012000E90F0008E90F0008E90F0008E90F0008CF
:10013000E90F0008000000000000000000000000BF
:10014000000000000000000000000000E90F0008AF
:10015000E90F0008E90F0008E90F0008E90F00089F
:10016000E90F0008E90F000800000000000000008F
:10017000000000000000000000000000000000007F
:1001800000000000E90F000800000000000000006F
:04019000E90F00086B
:100194000348044B834202D0034B03B11847704712
:1001A4000400002004000020000000000548064B65
:1001B4001B1AD90F01EBA301491002D0034B03B161
:1001C40018477047040000200400002000000000CD
:1001D40010B5064C237843B9FFF7DAFF044B13B18B
:1001E4000448AFF300800123237010BD04000020F5
:1001F400000000003410000808B5054B1BB1054988
:100204000548AFF30080BDE80840FFF7CFBF00BF4B
:1002140000000000080000203410000880B582B0FF
:1002240000AF0346FB710B46BB7113467B71B97972
:10023400F8790023032200F099F8682000F020FCEC
:100244003C4B5B683B4A23F440335360394B394A97
:100254005B685360384B5B68374A23F040735360E4
:10026400354B354A5B685360334B00229A60324BFE
:100274009B68314A43F0010393602F4B9B682E4ADD
:1002840023F0020393602C4B9B682B4A43F4806356
:1002940093607B79092B19D8274B19697A7913460E
:1002A4005B001344072202FA03F3DB43224A0B40A8
:1002B4001361214B19697A7913465B0013440422B4
:1002C40002FA03F31C4A0B4313611CE01A4BD9686E
:1002D4007B79A3F10A0213465B001344072202FA56
:1002E40003F3DB43144A0B40D360134BD9687B7987
:1002F400A3F10A0213465B001344042202FA03F337
:100304000D4A0B43D3600C4BDB6A0B4A23F4700396
:10031400D362094B5B6B084A23F01F035363064BFC
:100324005A6B7B79044913434B6300BF0837BD46BE
:1003340080BD00BF002301400020014080B400AF15
:10034400094B9B68084A43F08043936000BF064B07
:100354001B6803F00203002BF9D0034BDB6C9BB248
:100364001846BD4680BC70470020014090B482B05E
:1003740000AF0446084611461A462346FB7103465D
:10038400BB710B467B7113463B71FB79413B032BDD
:1003940000F22C8101A252F823F000BFB10300083F
:1003A40041040008D104000861050008924B1B6851
:1003B400BA795200032101FA02F2D24311468E4A5D
:1003C4000B4013608C4B1B687979BA79520001FA9F
:1003D40002F21146884A0B4313607B79002B17D134
:1003E400864B1B68BA795200032101FA02F2D24308
:1003F4001146824A0B401360804B1B683979BA79E5
:10040400520001FA02F211467C4A0B431360EEE0FB
:100414007B4B1B68BA79012101FA02F2D2431146DF
:10042400774A0B401360764B1B683979BA7901FA25
:1004340002F21146724A0B431360D8E0714B1B68F9
:10044400BA795200032101FA02F2D24311466D4AED
:100454000B4013606B4B1B687979BA79520001FA2F
:1004640002F21146674A0B4313607B79002B17D1C4
:10047400654B1B68BA795200032101FA02F2D24398
:100484001146614A0B4013605F4B1B683979BA7996
:10049400520001FA02F211465B4A0B431360A6E0D4
:1004A4005A4B1B68BA79012101FA02F2D243114670
:1004B400564A0B401360554B1B683979BA7901FAD7
:1004C40002F21146514A0B43136090E0504B1B68F3
:1004D400BA795200032101FA02F2D24311464C4A7E
:1004E4000B4013604A4B1B687979BA79520001FAC0
:1004F40002F21146464A0B4313607B79002B17D155
:10050400444B1B68BA795200032101FA02F2D24328
:100514001146404A0B4013603E4B1B683979BA7947
:10052400520001FA02F211463A4A0B4313605EE0AC
:10053400394B1B68BA79012101FA02F2D243114600
:10054400354A0B401360344B1B683979BA7901FA88
:1005540002F21146304A0B43136048E02F4B1B68EC
:10056400BA795200032101FA02F2D24311462B4A0E
:100574000B401360294B1B687979BA79520001FA50
:1005840002F21146254A0B4313607B79002B17D1E5
:10059400234B1B68BA795200032101FA02F2D243B9
:1005A40011461F4A0B4013601D4B1B683979BA79F9
:1005B400520001FA02F21146194A0B43136016E085
:1005C400184B1B68BA79012101FA02F2D243114691
:1005D400144A0B401360134B1B683979BA7901FA3A
:1005E40002F211460F4A0B43136000E000BF00BF44
:1005F4000837BD4690BC7047000002400C00024022
:1006040004000240000402400C04024004040240BE
:10061400000802400C08024004080240000C02409A
:100624000C0C0240040C024080B485B000AF0346B9
:10063400FB710B46BB7113467B71FB79413B032B6A
:1006440036D801A252F823F05D06000873060008AC
:10065400890600089F060008504B1A68BB795B00A6
:1006640022FA03F3DBB203F00303FB7321E04C4BE8
:100674001A68BB795B0022FA03F3DBB203F00303CD
:10068400FB7316E0474B1A68BB795B0022FA03F34D
:10069400DBB203F00303FB730BE0434B1A68BB7933
:1006A4005B0022FA03F3DBB203F00303FB7300E005
:1006B40000BFFB7B002B01D1012369E0FB79413BA7
:1006C400032B63D801A252F823F000BFE10600080F
:1006D4000D0700083907000865070008334B1B683D
:1006E400BA79012101FA02F2D24311462F4A0B4092
:1006F40013602E4B1B687979BA7901FA02F211461C
:100704002A4A0B43136042E0294B1B68BA79012142
:1007140001FA02F2D2431146254A0B401360244BDE
:100724001B687979BA7901FA02F21146204A0B431F
:1007340013602CE01F4B1B68BA79012101FA02F205
:10074400D24311461B4A0B4013601A4B1B6879793C
:10075400BA7901FA02F21146164A0B43136016E005
:10076400154B1B68BA79012101FA02F2D2431146F2
:10077400114A0B401360104B1B687979BA7901FA5E
:1007840002F211460C4A0B43136000E000BF002341
:1007940018461437BD4680BC704700BF00000240B5
:1007A4000004024000080240000C02401400024011
:1007B4001404024014080240140C024080B485B0B2
:1007C40000AF03460A46FB711346BB71FB79413BFC
:1007D400032B33D801A252F823F000BFF10700081D
:1007E40005080008190800082D080008174B1A68A6
:1007F400BB7922FA03F3DBB203F00103FB731EE0BF
:10080400134B1A68BB7922FA03F3DBB203F001033A
:10081400FB7314E00F4B1A68BB7922FA03F3DBB2C3
:1008240003F00103FB730AE00B4B1A68BB7922FA4D
:1008340003F3DBB203F00103FB7300E000BFFB7BB7
:1008440018461437BD4680BC704700BF10000240F4
:100854001004024010080240100C024080B582B01F
:1008640000AF03460A46FB711346BB80012000F02B
:1008740015F8BB88184600F0C7F800BF0837BD4616
:1008840080BD80B582B000AF0346FB80FB8818466C
:1008940000F0BAF800BF0837BD4680BD80B584B00B
:1008A40000AF0346FB71534AFB791370402000F0FC
:1008B400E7F8002000F0E4F84F4B1B684E4A23F0A1
:1008C400030313604C4B1B684B4A43F00203136051
:1008D4004A4B1B68FA79013A92000F2101FA02F29D
:1008E400D2431146454A0B401360444B1B68FA79C6
:1008F400013A9200012101FA02F211463F4A0B43E8
:1009040013603F4BFB60FB683E4AA2FB03239B0939
:10091400013BBB604FF0804302229A624FF0804259
:10092400BB68D3624FF0804300225A63FB79012BEA
:1009340020D14FF080439B694FF0804223F0700335
:1009440093614FF080439B694FF0804243F0600312
:1009540093614FF080439B694FF0804243F008035A
:1009640093614FF080431B6A4FF0804243F00103D0
:10097400136222E0FB79022B1FD14FF080439B6965
:100984004FF0804223F4704393614FF080439B699E
:100994004FF0804243F4C04393614FF080439B691E
:1009A4004FF0804243F4006393614FF080431B6A2D
:1009B4004FF0804243F0100313624FF080431B68F2
:1009C4004FF0804243F0800313604FF080435B6933
:1009D4004FF0804243F0010353614FF080431B68A2
:1009E4004FF0804243F00103136000BF1037BD464F
:1009F40080BD00BF20000020000002402000024013
:100A0400AAB02800D34D621080B485B000AF03466D
:100A1400FB804FF08043DB6AFB60FB88FA6801329D
:100A240002FB03F30D4AA2FB03235B09BB600C4BDF
:100A34001B78012B04D14FF08042BB68536307E05D
:100A4400074B1B78022B03D14FF08042BB689363A2
:100A540000BF1437BD4680BC704700BF1F85EB51F3
:100A64002000002080B400AF044B1B68034A43F00D
:100A74000103136000BFBD4680BC704700380240CC
:100A840080B485B000AF0346FB71FB795B09FB734F
:100A9400FB7903F01F03BB73FB7B032B36D801A246
:100AA40052F823F0B90A0008CF0A0008E50A000842
:100AB400FB0A0008184B1B68BA7B012101FA02F2F9
:100AC4001146154A0B43136021E0144B1B68BA7B93
:100AD400012101FA02F21146104A0B43136016E099
:100AE4000F4B1B68BA7B012101FA02F211460C4A32
:100AF4000B4313600BE00B4B1B68BA7B012101FA1B
:100B040002F21146074A0B43136000E000BF00BF26
:100B14001437BD4680BC7047303802403438024038
:100B2400403802404438024080B500AF0020FFF74F
:100B3400A7FF0120FFF7A4FF002301220521412084
:100B4400FFF714FC0023012206214120FFF70EFCCD
:100B54000023012204214220FFF708FC0023012284
:100B640005214220FFF702FC002301220621422036
:100B7400FFF7FCFB0023012207214220FFF7F6FBCD
:100B8400002205214120FFF74FFD002206214120CC
:100B9400FFF74AFD322000F027F9032000F062F845
:100BA400052000F021F9032000F05CF8962000F005
:100BB40033F9032000F056F8962000F02DF90220B6
:100BC40000F050F8962000F027F9282000F00EF8E5
:100BD400082000F00BF8012000F008F8062000F0CF
:100BE40005F80C2000F002F800BF80BD80B582B08B
:100BF40000AF0346FB71002205214120FFF714FDDD
:100C0400FB791B09DBB2184600F02CF8FB7903F0E2
:100C14000F03DBB2184600F025F8022000F0E4F8D8
:100C240000BF0837BD4680BD80B582B000AF034623
:100C3400FB71012205214120FFF7F6FCFB791B091A
:100C4400DBB2184600F00EF8FB7903F00F03DBB2B9
:100C5400184600F007F8322000F0DEF800BF08372D
:100C6400BD4680BD80B582B000AF0346FB71FB7901
:100C740003F00103DBB21A4604214220FFF7D4FC3F
:100C8400FB795B08DBB203F00103DBB21A460521F2
:100C94004220FFF7C9FCFB799B08DBB203F0010398
:100CA400DBB21A4606214220FFF7BEFCFB79DB08C3
:100CB400DBB203F00103DBB21A4607214220FFF73F
:100CC400B3FC00F004F800BF0837BD4680BD80B512
:100CD40000AF012206214120FFF7A6FC012000F00D
:100CE4009BF8002206214120FFF79EFC012000F022
:100CF40093F800BF80BD80B582B000AF786009E092
:100D04007B6893F90030DBB21846FFF78DFF7B68F0
:100D140001337B607B6893F90030002BF0D100BF76
:100D240000BF0837BD4680BD80B584B000AF034620
:100D34000A46FB711346BB71FB79002B03D1BB79C7
:100D4400803BFB7308E0FB79012B03D1BB79403B6B
:100D5400FB7301E08023FB73FB7B1846FFF746FF20
:100D640000BF1037BD4680BD80B586B000AF786047
:100D74000023FB757B68002B1ED13020FFF754FF46
:100D84002DE07968174BA3FB0123DA0813469B0077
:100D940013445B00CA1AD3B23033DAB2FB7D591C58
:100DA400F97552B218333B4403F8102C7B680D4A92
:100DB400A2FB0323DB087B607B68002BE1D10BE003
:100DC400FB7D013BFB75FB7D18333B4413F9103C61
:100DD400DBB21846FFF728FFFB7D002BF0D1183754
:100DE400BD4680BDCDCCCCCC80B584B000AF03462D
:100DF400FB800023FB8106E04FF47A7000F00CF8CE
:100E0400FB890133FB81FA89FB889A42F4D300BF42
:100E140000BF1037BD4680BD80B485B000AF034627
:100E2400FB80FB889B00FB6000BFFB685A1EFA60D6
:100E3400002BFAD100BF00BF1437BD4680BC7047F9
:100E440080B500AF00F003F800F037F8FCE780B598
:100E540000AFFFF707FE0020FFF712FE0120FFF7A7
:100E64000FFE6E20FFF70CFE32210120FFF7F6FC87
:100E7400FFF75AFE012201214120FFF7CFF9002399
:100E8400012200214220FFF771FA002301220121EF
:100E94004220FFF76BFA0123002209214220FFF7C9
:100EA40065FA012200214220FFF7BEFB0022012146
:100EB4004220FFF7B9FB00BF80BD80B582B000AF10
:100EC40000F00CF80346FB80FB881846FFF7D9FCBA
:100ED40000F03EF800BF0837BD4680BD80B582B043
:100EE40000AFFFF72BFA0346FB80FB88642202FB6A
:100EF40003F3064A82FB03121A44D212DB17D31AF5
:100F0400BB80BB8818460837BD4680BD8100088079
:100F140080B500AF09214220FFF750FC0346184674
:100F240080BD000080B582B000AF0346FB71022192
:100F34000020FFF7F9FE0548FFF7DDFEFB791846B0
:100F4400FFF712FF00BF0837BD4680BD4C100008F4
:100F540080B500AFFFF7DCFF03461A460D4B1A704D
:100F64000D4B1B78012B0ED10A4B1B78002B0AD199
:100F74000A4B1B780133DAB2084B1A70074B1B7803
:100F84001846FFF7CFFF034B1A78034B1A7000BFC4
:100F940080BD00BF220000200000002021000020AE
:100FA40000200B490B4A0C4B02E01C580C50043037
:100FB4000C189442F9D300200849094A01E008605A
:100FC40004319142FBD300F00FF8FFF739FF000022
:100FD40000000020040000205C1000080400002031
:100FE40024000020FEE7000070B50D4B0D4D5B1B87
:100FF4009C100026A64209D100F01AF80A4D0B4BAA
:101004005B1B9C100026A64205D170BD55F8043B1D
:1010140098470136EEE755F8043B98470136F2E766
:101024005410000854100008541000085810000808
:10103400F8B500BFF8BC08BC9E467047F8B500BFC1
:08104400F8BC08BC9E46704791
:08104C00436F756E743A000059
:04105400FD01000892
:04105800D5010008B6
:04105C00010000008F
:0400000508000FA53B
:00000001FF
