:020000040800F2
:1000000000800120ED1400083115000831150008AA
:1000100031150008311500083115000800000000F6
:100020000000000000000000000000003115000882
:1000300031150008000000003115000831150008D6
:100040003115000831150008311500083115000878
:100050003115000831150008311500083115000868
:100060003115000831150008311500083115000858
:100070003115000831150008311500083115000848
:100080003115000831150008311500080000000086
:100090000000000000000000000000003115000812
:1000A0003115000831150008311500083115000818
:1000B0003115000831150008311500083115000808
:1000C00031150008311500083115000831150008F8
:1000D0003115000831150008311500080000000036
:1000E0003115000831150008311500080000000026
:1000F00000000000000000000000000031150008B2
:100100000000000031150008311500083115000805
:1001100000000000000000000000000000000000DF
:100120003115000831150008311500083115000897
:100130003115000800000000000000000000000071
:100140000000000000000000000000003115000861
:100150003115000831150008311500083115000867
:1001600031150008311500080000000000000000F3
:10017000000000000000000000000000000000007F
:100180000000000031150008000000000000000021
:04019000311500081D
:100194000348044B834202D0034B03B11847704712
:1001A4000400002004000020000000000548064B65
:1001B4001B1AD90F01EBA301491002D0034B03B161
:1001C40018477047040000200400002000000000CD
:1001D40010B5064C237843B9FFF7DAFF044B13B18B
:1001E4000448AFF300800123237010BD04000020F5
:1001F400000000007C15000808B5054B1BB105493B
:100204000548AFF30080BDE80840FFF7CFBF00BF4B
:1002140000000000080000207C15000880B582B0B2
:1002240000AF0346FB710B46BB7113467B71B97972
:10023400F8790023032200F099F8682000F09EFD6D
:100244003C4B5B683B4A23F440335360394B394A97
:100254005B685360384B5B68374A23F040735360E4
:10026400354B354A5B685360334B00229A60324BFE
:100274009B68314A43F0010393602F4B9B682E4ADD
:1002840023F0020393602C4B9B682B4A43F4806356
:1002940093607B79092B19D8274B19697A7913460E
:1002A4005B001344072202FA03F3DB43224A0B40A8
:1002B4001361214B19697A7913465B0013440422B4
:1002C40002FA03F31C4A0B4313611CE01A4BD9686E
:1002D4007B79A3F10A0213465B001344072202FA56
:1002E40003F3DB43144A0B40D360134BD9687B7987
:1002F400A3F10A0213465B001344042202FA03F337
:100304000D4A0B43D3600C4BDB6A0B4A23F4700396
:10031400D362094B5B6B084A23F01F035363064BFC
:100324005A6B7B79044913434B6300BF0837BD46BE
:1003340080BD00BF002301400020014080B400AF15
:10034400094B9B68084A43F08043936000BF064B07
:100354001B6803F00203002BF9D0034BDB6C9BB248
:100364001846BD4680BC70470020014090B482B05E
:1003740000AF0446084611461A462346FB7103465D
:10038400BB710B467B7113463B71FB79413B032BDD
:1003940000F2F88101A252F823F000BFB103000873
:1003A400B9040008C1050008F90600089C4B1B6845
:1003B400BA795200032101FA02F2D2431146984A53
:1003C4000B401360964B1B687979BA79520001FA95
:1003D40002F21146924A0B4313607B79002B17D12A
:1003E400904B1B68BA795200032101FA02F2D243FE
:1003F40011468C4A0B4013608A4B1B683979BA79D1
:10040400520001FA02F21146864A0B431360BBE123
:100414007B79012B15D1844B1B68BA79012101FA30
:1004240002F2D2431146804A0B4013607E4B1B6894
:100434003979BA7901FA02F211467B4A0B43136007
:10044400A2E17B79022B40F09F81BB79072B17D85F
:10045400764B1B68BA7992000F2101FA02F2D2435B
:100464001146724A0B401360704B1B68BA799200B4
:10047400012101FA02F211466C4A0B43136083E135
:100484006B4B1B68BA79083A92000F2101FA02F209
:10049400D2431146664A0B401360654B1B68BA7918
:1004A400083A9200012101FA02F21146604A0B4314
:1004B400136069E15F4B1B68BA795200032101FAAA
:1004C40002F2D24311465B4A0B401360594B1B683E
:1004D4007979BA79520001FA02F21146554A0B436E
:1004E40013607B79002B17D1534B1B68BA795200E8
:1004F400032101FA02F2D24311464F4A0B40136022
:100504004D4B1B683979BA79520001FA02F211464F
:10051400494A0B43136039E17B79012B15D1474BD1
:100524001B68BA79012101FA02F2D2431146434A07
:100534000B401360414B1B683979BA7901FA02F216
:1005440011463E4A0B43136020E17B79022B40F0B5
:100554001D81BB79072B17D8394B1B68BA799200D8
:100564000F2101FA02F2D2431146354A0B401360BF
:10057400334B1B68BA799200012101FA02F2114649
:100584002F4A0B43136001E12E4B1B68BA79083ADA
:1005940092000F2101FA02F2D2431146294A0B407C
:1005A4001360284B1B68BA79083A9200012101FABA
:1005B40002F21146234A0B431360E7E0224B1B6807
:1005C400BA795200032101FA02F2D24311461E4ABB
:1005D4000B4013601C4B1B687979BA79520001FAFD
:1005E40002F21146184A0B4313607B79002B2FD17A
:1005F400164B1B68BA795200032101FA02F2D24366
:100604001146124A0B401360104B1B683979BA79B2
:10061400520001FA02F211460C4A0B431360B7E090
:10062400000002400C00024004000240200002408E
:1006340024000240000402400C040240040402406E
:100644002004024024040240000802400C08024036
:100654007B79012B15D1514B1B68BA79012101FA21
:1006640002F2D24311464D4A0B4013604B4B1B68B8
:100674003979BA7901FA02F21146484A0B431360F8
:1006840086E07B79022B40F08380BB79072B17D857
:10069400434B1B68BA7992000F2101FA02F2D2434C
:1006A40011463F4A0B4013603D4B1B68BA799200D8
:1006B400012101FA02F21146394A0B43136067E043
:1006C400384B1B68BA79083A92000F2101FA02F2FA
:1006D400D2431146334A0B401360324B1B68BA793C
:1006E400083A9200012101FA02F211462D4A0B4305
:1006F40013604DE02C4B1B68BA795200032101FAB8
:1007040002F2D2431146284A0B401360264B1B6861
:100714007979BA79520001FA02F21146224A0B435E
:1007240013607B79002B17D1204B1B68BA795200D8
:10073400032101FA02F2D24311461C4A0B40136012
:100744001A4B1B683979BA79520001FA02F2114640
:10075400164A0B4313601CE0154B1B68BA79012140
:1007640001FA02F2D2431146114A0B401360104BB6
:100774001B683979BA7901FA02F211460C4A0B4323
:10078400136006E000BF04E000BF02E000BF00E029
:1007940000BF00BF0837BD4690BC70470408024044
:1007A4002008024024080240000C02400C0C0240C5
:1007B400040C024080B485B000AF0346FB710B46C5
:1007C400BB7113467B71FB79413B032B36D801A2E5
:1007D40052F823F0E9070008FF070008150800088D
:1007E4002B080008504B1A68BB795B0022FA03F30C
:1007F400DBB203F00303FB7321E04C4B1A68BB79B3
:100804005B0022FA03F3DBB203F00303FB7316E08D
:10081400474B1A68BB795B0022FA03F3DBB203F09F
:100824000303FB730BE0434B1A68BB795B0022FAAA
:1008340003F3DBB203F00303FB7300E000BFFB7BB5
:10084400002B01D1012369E0FB79413B032B63D8E1
:1008540001A252F823F000BF6D08000899080008AF
:10086400C5080008F1080008334B1B68BA79012158
:1008740001FA02F2D24311462F4A0B4013602E4B69
:100884001B687979BA7901FA02F211462A4A0B43B4
:10089400136042E0294B1B68BA79012101FA02F284
:1008A400D2431146254A0B401360244B1B687979C7
:1008B400BA7901FA02F21146204A0B4313602CE084
:1008C4001F4B1B68BA79012101FA02F2D243114687
:1008D4001B4A0B4013601A4B1B687979BA7901FAE9
:1008E40002F21146164A0B43136016E0154B1B68BF
:1008F400BA79012101FA02F2D2431146114A0B409E
:100904001360104B1B687979BA7901FA02F2114627
:100914000C4A0B43136000E000BF00231846143751
:10092400BD4680BC704700BF000002400004024086
:1009340000080240000C024014000240140402406B
:1009440014080240140C024080B485B000AF034682
:100954000A46FB711346BB71FB79413B032B33D829
:1009640001A252F823F000BF7D0900089109000894
:10097400A5090008B9090008174B1A68BB7922FABF
:1009840003F3DBB203F00103FB731EE0134B1A689D
:10099400BB7922FA03F3DBB203F00103FB7314E027
:1009A4000F4B1A68BB7922FA03F3DBB203F001039D
:1009B400FB730AE00B4B1A68BB7922FA03F3DBB230
:1009C40003F00103FB7300E000BFFB7B1846143700
:1009D400BD4680BC704700BF1000024010040240B6
:1009E40010080240100C024080B582B000AF0346EC
:1009F4000A46FB711346BB80012000F015F8BB8842
:100A0400184600F06DF900BF0837BD4680BD80B5BB
:100A140082B000AF0346FB80FB88184600F060F903
:100A240000BF0837BD4680BD80B584B000AF034623
:100A3400FB71A44AFB791370402000F09FF9002059
:100A440000F09CF9A04BFB60FB68A04AA2FB0323C7
:100A54009B09013BBB604FF0804302229A624FF036
:100A64008042BB68D3624FF0804300225A63FB7913
:100A7400012B45D1964B1B68954A23F00303136061
:100A8400934B1B68924A43F002031360914B1B681B
:100A9400FA79013A92000F2101FA02F2D243114687
:100AA4008C4A0B4013608B4B1B68FA79013A920015
:100AB400012101FA02F21146864A0B4313604FF0FA
:100AC40080439B694FF0804223F0700393614FF0A1
:100AD40080439B694FF0804243F0600393614FF081
:100AE40080439B694FF0804243F0080393614FF0C9
:100AF40080431B6A4FF0804243F001031362C5E058
:100B0400FB79022B45D1724B1B68714A23F0030316
:100B140013606F4B1B686E4A43F0020313606D4B06
:100B24001B68FA79013A92000F2101FA02F2D243CA
:100B34001146684A0B401360664B1B68FA79013A08
:100B44009200012101FA02F21146624A0B4313603A
:100B54004FF080439B694FF0804223F4E04393615C
:100B64004FF080439B694FF0804243F4C04393614C
:100B74004FF080439B694FF0804243F400639361DC
:100B84004FF080431B6A4FF0804243F0100313621E
:100B94007CE0FB79032B3BD1012000F0EFF84E4BB6
:100BA4001B684D4A23F4401313604B4B1B684A4A9D
:100BB40043F400131360494B1B68484A23F47063E1
:100BC4001360464B1B68454A43F4807313604FF02F
:100BD4008043DB694FF0804223F07003D3614FF010
:100BE4008043DB694FF0804243F06003D3614FF0F0
:100BF4008043DB694FF0804243F00803D3614FF038
:100C040080431B6A4FF0804243F4807313623DE0DB
:100C1400FB79042B3AD1012000F0B0F82E4B1B686D
:100C24002D4A23F4400313602B4B1B682A4A43F4D8
:100C340000031360294B1B68284A23F47043136094
:100C4400264B1B68254A43F4805313604FF08043BE
:100C5400DB694FF0804223F4E043D3614FF08043DB
:100C6400DB694FF0804243F4C043D3614FF08043CB
:100C7400DB694FF0804243F40063D3614FF080435B
:100C84001B6A4FF0804243F4805313624FF0804359
:100C94001B684FF0804243F0800313604FF08043A1
:100CA4005B694FF0804243F0010353614FF080438E
:100CB4001B684FF0804243F00103136000BF1037FC
:100CC400BD4680BD20000020AAB02800D34D62108C
:100CD40000000240200002400004024024040240BC
:100CE40080B485B000AF0346FB804FF08043DB6ADD
:100CF400FB60FB88FA68013202FB03F3164AA2FB8D
:100D040003235B09BB60154B1B78012B04D14FF007
:100D14008042BB68536319E0104B1B78022B04D14B
:100D24004FF08042BB68936310E00C4B1B78032B9D
:100D340004D14FF08042BB68D36307E0074B1B78B4
:100D4400042B03D14FF08042BB68136400BF1437F7
:100D5400BD4680BC704700BF1F85EB5120000020BA
:100D640080B400AF044B1B68034A43F001031360D3
:100D740000BFBD4680BC70470038024080B485B0D7
:100D840000AF0346FB71FB795B09FB73FB7903F04E
:100D94001F03BB73FB7B032B36D801A252F823F04D
:100DA400B50D0008CB0D0008E10D0008F70D000893
:100DB400184B1B68BA7B012101FA02F21146154A4D
:100DC4000B43136021E0144B1B68BA7B012101FA29
:100DD40002F21146104A0B43136016E00F4B1B68D6
:100DE400BA7B012101FA02F211460C4A0B4313604B
:100DF4000BE00B4B1B68BA7B012101FA02F211468E
:100E0400074A0B43136000E000BF00BF1437BD4620
:100E140080BC7047303802403438024040380240C9
:100E24004438024080B582B000AF0346FB714020D5
:100E3400FFF7A4FF0023022200214120FFF796FAC6
:100E44004FF0804300221A60184B4F221A60184B4F
:100E54004FF0FF321A60FB79012B1BD1154B1B6835
:100E6400144A43F001031360134B1B68124A23F026
:100E740003031360104B1B680F4A43F00103136014
:100E84000C4B1B680B4A23F00A031360094B094AF5
:100E94001B6813604FF080431B684FF0804243F09F
:100EA4000103136000BF0837BD4680BD2800004021
:100EB4002C000040200000401800004080B483B0A3
:100EC40000AF0F4B1B6803F00203002B12D00D4B35
:100ED4001B687B600C4B1B687A68D31A3B600A4A18
:100EE4007B681360064B1B68054A23F002031360FA
:100EF4003B6800E0002318460C37BD4680BC7047B1
:100F040010000040340000402400002080B500AFF1
:100F14000020FFF733FF0120FFF730FF00230122F9
:100F240005214120FFF722FA002301220621412056
:100F3400FFF71CFA0023012204214220FFF716FACE
:100F44000023012205214220FFF710FA0023012289
:100F540006214220FFF70AFA00230122072142203A
:100F6400FFF704FA002205214120FFF723FC0022A9
:100F740006214120FFF71EFC322000F09FF90320D8
:100F840000F062F8052000F099F9032000F05CF805
:100F9400962000F0ABF9032000F056F8962000F0FC
:100FA400A5F9022000F050F8962000F09FF92820BF
:100FB40000F00EF8082000F00BF8012000F008F80B
:100FC400062000F005F80C2000F002F800BF80BDF8
:100FD40080B582B000AF0346FB7100220521412099
:100FE400FFF7E8FBFB791B09DBB2184600F02CF88D
:100FF400FB7903F00F03DBB2184600F025F802205A
:1010040000F05CF900BF0837BD4680BD80B582B0F2
:1010140000AF0346FB71012205214120FFF7CAFB03
:10102400FB791B09DBB2184600F00EF8FB7903F0DC
:101034000F03DBB2184600F007F8322000F056F92F
:1010440000BF0837BD4680BD80B582B000AF0346FF
:10105400FB71FB7903F00103DBB21A460421422041
:10106400FFF7A8FBFB795B08DBB203F00103DBB2FB
:101074001A4605214220FFF79DFBFB799B08DBB252
:1010840003F00103DBB21A4606214220FFF792FB6C
:10109400FB79DB08DBB203F00103DBB21A4607215C
:1010A4004220FFF787FB00F004F800BF0837BD4675
:1010B40080BD80B500AF012206214120FFF77AFBF5
:1010C400012000F013F9002206214120FFF772FBF2
:1010D400012000F00BF900BF80BD80B582B000AFE5
:1010E400786009E07B6893F90030DBB21846FFF7BB
:1010F4008DFF7B6801337B607B6893F90030002BA4
:10110400F0D100BF00BF0837BD4680BD80B584B0B4
:1011140000AF03460A46FB711346BB71FB79002BF3
:1011240003D1BB79803BFB7308E0FB79012B03D12E
:10113400BB79403BFB7301E08023FB73FB7B1846C8
:10114400FFF746FF00BF1037BD4680BD80B588B0AD
:1011540000AF78600023FB777B68002B09D1302037
:10116400FFF754FF2020FFF751FF2020FFF74EFF29
:101174003FE07B68BB611AE0B9691F4BA3FB012305
:10118400DA0813469B0013445B00CA1AD3B2303307
:10119400DAB2FB7F591CF97752B220333B4403F88F
:1011A400182CBB69144AA2FB0323DB08BB61BB698F
:1011B400002BE1D10023FB750EE0FB7F013BFB77A5
:1011C400FB7F20333B4413F9183CDBB21846FFF78E
:1011D4001DFFFB7D0133FB75FB7F002BEDD105E08B
:1011E4002020FFF713FFFB7D0133FB75FB7D022BF2
:1011F400F6D92037BD4680BDCDCCCCCC80B588B0E7
:1012040000AF78600B46FB700023FB777B68002BF4
:1012140011D10023BB7705E02020FFF7F7FEBB7F49
:101224000133BB77BA7FFB78013B9A42F4DB302071
:10123400FFF7ECFE3DE07B68BB611AE0B9691E4B29
:10124400A3FB0123DA0813469B0013445B00CA1A6C
:10125400D3B23033DAB2FB7F591CF97752B2203360
:101264003B4403F8142CBB69134AA2FB0323DB0899
:10127400BB61BB69002BE1D107E0FB7F5A1CFA7705
:1012840020333B44202203F8142CFA7FFB789A4243
:10129400F3D30BE0FB7F013BFB77FB7F20333B4425
:1012A40013F9143CDBB21846FFF7B0FEFB7F002BAA
:1012B400F0D12037BD4680BDCDCCCCCC80B584B038
:1012C40000AF0346FB800023FB8106E04FF47A70F5
:1012D40000F00CF8FB890133FB81FA89FB889A4200
:1012E400F4D300BF00BF1037BD4680BD80B485B0C5
:1012F40000AF0346FB80FB889B00FB6000BFFB68DC
:101304005A1EFA60002BFAD100BF00BF1437BD4645
:1013140080BC704780B500AF00F003F800F048F8D7
:10132400FCE780B500AFFFF71BFD0020FFF726FDAB
:101334000120FFF723FD6E20FFF720FD4020FFF77B
:101344001DFD32210320FFF74FFBFFF7DFFD0120D6
:10135400FFF768FD012201214120FEF75FFF002312
:1013640001220F214220FFF701F8002301220E2160
:101374004220FEF7FBFF0123002209214220FEF751
:10138400F5FF00220F214120FFF714FA01220E215C
:101394004120FFF70FFA0023012207214120FEF725
:1013A400E5FF012207214120FFF704FA00BF80BDB9
:1013B40080B582B000AF00F01BF80346FB80FB88C9
:1013C4001846FFF724FBFB88184600F073F800F07A
:1013D40049F8FFF773FD38603B68002B04D0002206
:1013E40007214120FFF7E6F900BF0837BD4680BD5D
:1013F40080B582B000AFFEF7A1FF0346FB80FB88F7
:10140400642203FB02F2064BA3FB0213D21A520816
:101414001344DB0ABB80BB8818460837BD4680BD31
:101424000101100080B500AF09214220FFF78CFABA
:101434000346184680BD000080B582B000AF034665
:10144400FB7101210020FFF761FE0548FFF745FE0F
:10145400FB791846FFF77AFE00BF0837BD4680BD0A
:101464009415000880B500AFFFF7DCFF03461A4669
:101474000D4B1A700D4B1B78012B0ED10A4B1B78A8
:10148400002B0AD10A4B1B780133DAB2084B1A70CD
:10149400074B1B781846FFF7CFFF034B1A78034B13
:1014A4001A7000BF80BD00BF29000020000000208A
:1014B4002800002080B582B000AF0346FB800021E5
:1014C4000120FFF723FE0748FFF707FEFB880321EF
:1014D4001846FFF793FE2520FFF798FD00BF083755
:1014E400BD4680BD9C15000800200B490B4A0C4BDF
:1014F40002E01C580C5004300C189442F9D300201C
:101504000849094A01E0086004319142FBD300F024
:101514000FF8FFF7FFFE0000000000200400002089
:10152400AC150008040000202C000020FEE7000099
:1015340070B50D4B0D4D5B1B9C100026A64209D1C6
:1015440000F01AF80A4D0B4B5B1B9C100026A642B8
:1015540005D170BD55F8043B98470136EEE755F8C0
:10156400043B98470136F2E7A4150008A4150008C7
:10157400A4150008A8150008F8B500BFF8BC08BCFD
:101584009E467047F8B500BFF8BC08BC9E4670473D
:10159400436F756E743A00004D6F746F723A200099
:0415A400FD0100083D
:0415A800D501000861
:0415AC00010000003A
:04000005080014EDEE
:00000001FF
